:100000000C94AE090C94DF090C94DF090C94DF0901
:100010000C94DF090C94DF090C94DF090C94DF09C0
:100020000C94DF090C94DF090C94DF090C94DF09B0
:100030000C94DF090C94DF090C94DF090C94DF09A0
:100040000C94DF090C94DF090C94DF090C94DF0990
:100050000C94DF090C94DF090C94DF090C94A03C8C
:100060000C94DF090C94C91D0C949F1D0C94DF099E
:100070000C94DF090C94DF090C94DF090C94DF0960
:100080000C94DF090C94DF090C94DF090C94DF0950
:100090000C94DF090C94DF090C94DF090C94801A8E
:1000A0000C94DF090C94DF090C94DF090C94DF0930
:1000B0000C94DF090C94DF090C94DF090C94DF0920
:1000C0000C94DF090C94DF090C94DF090C94DF0910
:1000D0000C94DF090C94DF090C94DF090C94DF0900
:1000E0000C94DF09063B093BF83AFC3A023B403BE3
:1000F0000D3B113B173B1B3B1F3B253B293B2D3B3E
:10010000403B333B373B3B3B0C94FC3A0C94E62B97
:100110000C94963B0C94051C0C943E180C94063BD6
:100120000C94F1180C940D3B0C94253B0C94113B52
:100130000C94293B0C943B190C941F3B0C94093BE9
:100140000C94B81C0C942C1C0C94092D0C940119C3
:100150000C9415190C94DA1B0C94711C0C944F31EF
:100160000C949F160C9440160C94333B0C945F0A2D
:100170000C94023B0C94F83A0C94F2180C94663BE5
:100180000C9435200C943E1A0C94862C0C94F14F50
:100190000C94E33A0C94403B0C94F02B0C941D2DE2
:1001A0000C94C02C0C94061C0C94F62C0C941B3B49
:1001B0000C944C2C0C942D3B0C946A150C943A1C0A
:1001C0000C940E2C0C94373B0C94091C0C94173B8C
:1001D0000C94181C0C943B3B00000000070001002D
:1001E0000004110803F009000A060B01EF11000DCD
:1001F000100D00F12B000D140D00EF4C0013111524
:1002000001F0750010111101F0970004060601EFCE
:100210009A0006160801EFAB0006160801EFBC00B5
:1002200007080901EFC3000B0B0E02F6D300040709
:100230000601FED70006030801F9DA0004030601EF
:10024000FEDC0006110700F0E9000C110D01F003BF
:100250000107110E03F012010C110D01F02C010C1D
:10026000110D01F046010B110D01F05E010C110D95
:1002700001F078010C110D01F092010B110D01F04C
:10028000AA010C110D01F0C4010C110D01F0DE01E9
:10029000040C0601F5E40104100601F5EC010C0C58
:1002A0000E01F5FE010C090E01F70C020C0C0E01FB
:1002B000F51E020C120F02EF390215151701EF712E
:1002C0000210121100EF95020E121102EFB502108A
:1002D000121101EFD9020F121102EFFB020D1210E1
:1002E00002EF19030C120F02EF340310121201EF88
:1002F00058030E121202EF780304120702EF810373
:100300000B120E01EF9A0310121102EFBE030B1233
:100310000F02EFD70311121502EFFE030F121202A4
:10032000EF200411121301EF47040E121002EF67C1
:100330000411131301EF900410121102EFB4040F13
:10034000121001EFD6040C120F02EFF1040E12127C
:1003500002EF11050F121000EF330517121700EF0F
:1003600067050F121001EF890510120F00EFAD05A0
:100370000D120F01EFCB0506170802EFDD0507117F
:100380000700F0EC0506170800EFFE050C0B0E0148
:10039000F00F060F020DFF04130604030600EF150D
:1003A000060D0D0E01F42B060D120F02EF49060C7F
:1003B0000D0D01F45D060D120F01EF7B060D0D0E04
:1003C00001F4910607120801EFA1060D120F01F4C6
:1003D000BF060C120E02EFDA0604120702EFE30664
:1003E00006170700EFF5060C120E02EF10070412B5
:1003F0000602EF1907130D1502F438070C0D0F0252
:10040000F44C070D0D0F01F462070D120F02F4807A
:10041000070D120F01F49E07080D0902F4AB070C3B
:100420000D0D01F4BF07060F0801F2CB070C0D0FED
:1004300002F4DF070D0D0D00F4F507120D1300F4A3
:1004400013080D0D0D00F429080D120D00F44708D6
:100450000A0D0C01F4580806170901EF6A08021684
:100460000702EF700806170903EF82080C050C005D
:10047000F9FFFFFFFF766660FFF0F3FCFF3FCF61FF
:1004800098600E70738318FFF7FFBFFC7383181812
:10049000C7FFBFFDFFE31839C1CE0E7002007E0F0B
:1004A000F87FE7AFB93DC80F403F00FF00FC05FFF4
:1004B00027F93FEBEFFE3FE07C008004003C060F95
:1004C000C181FC30738C0C3181CE601FCC03F300F2
:1004D0003C678019F8027F80CE7011860639C1878B
:1004E000F8307E0C078007801FC03FE03CE03CE016
:1004F0003EE00FC007003F8C7FCCF1FCF0F8F078B5
:10050000F8F87FFC3FDE1F8EFFFF660C738E71C70D
:1005100038E38E38E38E1C71C38E1870C3871C3885
:10052000E3871C71C71C71CE38E71C638010235F02
:10053000F3871B140E01C038070FFFFFFFF8700E82
:1005400001C03800FFF336C0FFFFC0FFF00C30865B
:1005500018610C30C218618430C01F83FC7FE79E95
:10056000F0FF0FF0FF0FF0FF0FF0FF0FF0F79E7F8F
:10057000E3FC0F00061C7FFFE3C78F1E3C78F1E30E
:10058000C78F1E1F83FC7FEF9FF0FF0F00F00F014E
:10059000E03C0F81E03C03807FF7FF7FF01F07FC0A
:1005A000FFEF1EF1E01E03C07807C01E00F00FF041
:1005B000FF1F7FE7FC1F8003C0F81F07E1BC278CEB
:1005C000F31E63D87BFFFFFFFE0780F01E03C03FD2
:1005D000E7FE7FE7006006F87FCFFEF1F00F00F046
:1005E0000F00FE1EFFE7FC3F000F83FC7FE79FF03C
:1005F0000F78FFCFFEF9FF0FF0FF0FF0F79F7FE3BB
:10060000FC0F80FFFFFFFF80E01C0701E0380F01B7
:10061000C0780F01E0380F01E03C000F03FC7FC7FA
:100620009E70E70E39C1F83FC79EF0FF0FF0FF9FA5
:100630007FE3FC1F801F03FC7FEF9EF0EF0FF0FFB6
:100640000FF9F7FF3FF1EF00EF1E7FE7FC1F00FF00
:10065000F000000FFFFFF000000FFF116C0010070B
:1006600003F1FC7E0F80E00FC03F807F00F003FFAE
:10067000FFFFFFF000000000FFFFFFFFF0000E0093
:10068000FC07F00FE01F00F07F1F8FE0F008001F55
:1006900007FC7FEF9FF0FF0F00F00F01E03C0780A9
:1006A000F00E00E00000F00F00F000FE001FFC0361
:1006B000C0F03801C38007183D9987EC6C71C3C343
:1006C000061E1830F181878C187C60C3638E3B8FC7
:1006D000DF8C3CF0700001C0000780801FFE001F0F
:1006E000C00003E003E003E007F007F007700F78B5
:1006F0000E780E381E3C1C3C3FFC3FFE3FFE780E41
:10070000780F700FF007FFC3FFCFFF3C3EF07BC1B7
:10071000EF0FBFFCFFE3FFCF07BC0FF03FC0FF07A9
:10072000FFFEFFFBFF8007E01FF83FFC7C3E781FC9
:10073000F80FF000F000F000F000F000F000F80F0B
:10074000781F7C3E3FFE1FFC07F0FFE1FFE3FFE761
:1007500083EF03DE07FC07F80FF01FE03FC07F8048
:10076000FF03FE07BC1F7FFCFFF1FF80FFF7FFBF09
:10077000FDE00F007803C01FFCFFE7FF3C01E00F26
:10078000007803C01FFFFFFFFFC0FFFFFFFFFF0058
:10079000F00F00F00FFEFFEFFEF00F00F00F00F083
:1007A0000F00F00F0003F00FFC3FFE3E1F780778AC
:1007B00000F000F000F07FF07FF07FF00778077C1A
:1007C0000F3E1F3FFB0FFB03E3F03FC0FF03FC0F97
:1007D000F03FC0FF03FFFFFFFFFFFF03FC0FF03FF1
:1007E000C0FF03FC0FF03FC0F0FFFFFFFFFFFFFF64
:1007F000FFFF01E03C0780F01E03C0780F01E03CE2
:1008000007F8FF1FE3FC7BFE7FC3E0F03EF03CF007
:1008100078F0F0F1E0F3C0F780FF00FF80FF80FB8D
:10082000C0F1E0F0F0F0F0F078F03CF03EF01EF0B7
:100830001E03C0780F01E03C0780F01E03C0780F54
:1008400001E03C07FFFFFFFCF81FFE0FFF0FFF87D3
:10085000FFC3FFE1FFF9FFFCEFFE77FB3BFDDDFE91
:10086000FCFF7E7F9F3FCF9FE78FF3C7F8E3C0F089
:100870001FF03FF07FE0FFE1FFC3FDC7FB8FF39F59
:10088000E73FC77F8FFF0FFE1FFC1FF81FF03FE001
:100890003C03E00FFC0FFF87C7C780F3C07BC01F7E
:1008A000E00FF007F803FC01FE00F780F3C078F0DA
:1008B000F87FFC1FFC03F800FFE3FFEFFFBC1FF015
:1008C0003FC0FF03FC1FFFFBFFCFFE3C00F003C057
:1008D0000F003C00F003C00003E00FFC0FFF87C7D0
:1008E000C780F3C07BC01FE00FF007F803FC01FED8
:1008F00004F787F3C3F8F0F87FFC1FFF83F1800053
:1009000000FFF8FFFCFFFCF03EF01EF01EF01EF0B2
:100910003CFFF8FFF0FFF8F03CF03CF03CF03CF01E
:100920003CF03CF01F0FC07FE1FFE7C3EF03DE00A8
:100930003C007F007FF03FF80FF801F001FE03DE7E
:100940000FBFFE3FF81FC0FFFFFFFFF0F00F00F0EA
:100950000F00F00F00F00F00F00F00F00F00F00F8D
:1009600000F0F03FC0FF03FC0FF03FC0FF03FC0F9F
:10097000F03FC0FF03FC0FF03FC0F7879FFE3FF042
:100980003F00700EF03DE079C0E381C787870E0E0F
:100990001C1E781CE039C073807E00FC01F801E069
:1009A00003C0078070381CE0F079E1F0F3C3E1E3A5
:1009B00087C3870F870E3B9E1E77381CEE7039CC9D
:1009C000E07399C06E3F00FC7E01F8FC03F0F80371
:1009D000E1E00783C00F0780F03CF0F9E1E1E78335
:1009E000CF03FC03F007E007800F003F00FF01FE8C
:1009F000079E0F1E3C3CF83DE078F01E781E783CC8
:100A00003C3C3C781E780E700FF007E007E003C016
:100A100003C003C003C003C003C003C003C0FFFF83
:100A2000FFFFFE01F00F00F00F00F807807807804D
:100A30007C03C03C03C01FFFFFFFFFC0FFFFFCF3B0
:100A4000CF3CF3CF3CF3CF3CF3CF3CFFFFC0C181A1
:100A50000306040C1810306040C1810306FFFFCF6D
:100A60003CF3CF3CF3CF3CF3CF3CF3CFFFFFC00FC1
:100A700000F00F01F81B839C39C30C70E70EE07087
:100A8000FFFFFFFCE6301F83FF1FFDE1E00F03F9CE
:100A9000FFDF1EF0F78FBFFCFFE3CF80F007803C45
:100AA00001E00F007BC3FF9FFEF8F783FC1FE0FF10
:100AB00007F83FE3DFFEFFE7BE000F83FE7FF78FFF
:100AC000F07F00F00F00F0778F7FF3FE0F8000784B
:100AD00003C01E00F0078FBCFFEFFF78FF83FC1FF1
:100AE000E0FF07F83DE3EFFF3FF8FBC01F81FE1F6B
:100AF000F9F1CF077FFBFFDE00F003C39FFC7FC04F
:100B0000F8003EFDFBC79FBF3C78F1E3C78F1E3C5A
:100B100078F01E79FBDFFEF1FF07F83FC1FE0FF012
:100B20007FC7DFFE7FF1F7803C01FF1E7FF0FE00F4
:100B3000F00F00F00F00F00F7CFFEFFFF9FF0FF058
:100B4000FF0FF0FF0FF0FF0FF0FF0FFFF00FFFFFA1
:100B5000FFFFFFFF3CF3C000F3CF3CF3CF3CF3CFEC
:100B60003CF3CFFFFF80F00F00F00F00F00F0FF10C
:100B7000EF3CF78FF0FF0FF8FF8F3CF1CF1EF0EF47
:100B80000FFFFFFFFFFFFFFFFFFFF78F9FFBFBFF45
:100B9000FFFCF8FF1E1FE3C3FC787F8F0FF1E1FE1F
:100BA0003C3FC787F8F0FF1E1EF7CFFEFFFF9FF008
:100BB000FF0FF0FF0FF0FF0FF0FF0FF0F00F81FFBE
:100BC0001FFCF1EF07F83FC1FE0FF07BC79FFC7FD2
:100BD000C0F800F7C7FF3FFDF1EF07F83FC1FE0F78
:100BE000F07FC7BFFDFFCF787803C01E00F00780FD
:100BF000000F79FFDFFEF1FF07F83FC1FE0FF07B2A
:100C0000C7DFFE7FF1F7803C01E00F007803C0F3FF
:100C1000F7FFF8F0F0F0F0F0F0F0F0F01F87FCFFD5
:100C2000EF0FF80FF07FE0FF01FF0FFFE7FE1F80DF
:100C300079E7BFFDE79E79E79E7DF3C0F0FF0FF0F7
:100C4000FF0FF0FF0FF0FF0FF0FF1FFFF7FF3EF069
:100C5000F07B839E1CF1E38E1C707783B81DC07EF1
:100C600003E01F007000F0E1DC78771F3DE7CF79EB
:100C7000B38E6CE3BB38EEFC1F3F07C7C1F1F07CBD
:100C8000780E1E0078F3C78F783B81FC07C01E01E9
:100C9000F01FC0EF0F78F1E78700F07B839E1C7197
:100CA000E38E1E707383B81FC07E03E00F007003D5
:100CB000803C07C03E01E000FFFFFFFC0F0783C13F
:100CC000E0F0783C0FFFFFFFC01CF3CE38E38E3816
:100CD000E3BCF0E38E38E38E3CF1C0FFFFFFFFFF83
:100CE000F0E38F1C71C71C71C70F3DC71C71C71C77
:100CF000F3CE00780FE0CF307F01E07104D80120FF
:100D00007E1D4661696C656420746F20626F6F742C
:100D100020564C35334C305800005EBCE2613FDD5C
:100D200083C29C7E20A3FD1F41009D23BE46DB6540
:100D3000F88C11AF32CA57E9740000220025002850
:100D4000002B002E003100340002010000050108D4
:100D5000010B01000020002300260029002C002F99
:100D6000003200000100000301060109010505052C
:100D700005070508080808020202020A0A08080412
:100D80000404040101010101010101030303030340
:100D9000030303040707070C0C0C0C0C0C0C0C02CF
:100DA00002020206060606060606060B0B0B0B0BD6
:100DB0000B0B0B01021020200808102040102040CF
:100DC000800201020108040201010204081020400F
:100DD000808040201008040201800402018040202D
:100DE0001008040201080402010102040810204056
:100DF00080010204081020408000000000003E5BDB
:100E00004F5B3E3E6B4F6B3E1C3E7C3E1C183C7E57
:100E10003C181C577D571C1C5E7F5E1C00183C183C
:100E200000FFE7C3E7FF0018241800FFE7DBE7FF38
:100E300030483A060E2629792926407F05050740C5
:100E40007F05253F5A3CE73C5A7F3E1C1C08081C86
:100E50001C3E7F14227F22145F5F005F5F06097FC4
:100E6000017F006689956A606060606094A2FFA25D
:100E70009408047E040810207E201008082A1C080C
:100E8000081C2A08081E101010100C1E0C1E0C3016
:100E9000383E3830060E3E0E06000000000000000E
:100EA0005F00000007000700147F147F14242A7FCE
:100EB0002A1223130864623649562050000807039B
:100EC00000001C2241000041221C002A1C7F1C2A19
:100ED00008083E080800807030000808080808006C
:100EE0000060600020100804023E5149453E004267
:100EF0007F400072494949462141494D3318141237
:100F00007F1027454545393C4A494931412111095E
:100F1000073649494936464949291E000014000050
:100F2000004034000000081422411414141414006A
:100F30004122140802015909063E415D594E7C12B6
:100F400011127C7F494949363E414141227F41414E
:100F5000413E7F494949417F090909013E414151CB
:100F6000737F0808087F00417F41002040413F0116
:100F70007F081422417F404040407F021C027F7F57
:100F80000408107F3E4141413E7F090909063E4168
:100F900051215E7F09192946264949493203017FBB
:100FA00001033F4040403F1F2040201F3F4038404A
:100FB0003F631408146303047804036159494D43E3
:100FC000007F4141410204081020004141417F045B
:100FD0000201020440404040400003070800205442
:100FE0005478407F284444383844444428384444A2
:100FF000287F385454541800087E090218A4A49C71
:10100000787F0804047800447D40002040403D0083
:101010007F1028440000417F40007C047804787CE5
:10102000080404783844444438FC1824241818244C
:101030002418FC7C08040408485454542404043F35
:1010400044243C4040207C1C2040201C3C4030403C
:101050003C44281028444C9090907C4464544C4468
:101060000008364100000077000000413608000209
:10107000010204023C2623263C1EA1A161123A4033
:1010800040207A38545455592155557941225454A9
:101090007842215554784020545579400C1E5272A4
:1010A0001239555555593954545459395554545881
:1010B0000000457C410002457D420001457C407DA9
:1010C0001211127DF0282528F07C5455450020543B
:1010D000547C547C0A097F4932494949323A444494
:1010E000443A324A4848303A4141217A3A42402013
:1010F00078009DA0A07D3D4242423D3D4040403DA4
:101100003C24FF2424487E4943662B2FFC2F2BFFD1
:101110000929F620C0887E09032054547941000033
:10112000447D413048484A32384040227A007A0AA9
:101130000A727D0D19317D2629292F282629292972
:101140002630484D402038080808080808080838A4
:101150002F10C8ACBA2F102834FA00007B0000080A
:10116000142A142222142A14085500550055AA5591
:10117000AA55AAFF55FF55FF000000FF00101010F0
:10118000FF00141414FF001010FF00FF1010F010E7
:10119000F0141414FC001414F700FF0000FF00FF0B
:1011A0001414F404FC141417101F10101F101F1433
:1011B00014141F00101010F0000000001F10101079
:1011C000101F10101010F010000000FF1010101071
:1011D0001010101010FF10000000FF140000FF009E
:1011E000FF00001F10170000FC04F4141417101760
:1011F0001414F404F40000FF00F71414141414146D
:1012000014F700F7141414171410101F101F1414DF
:1012100014F4141010F010F000001F101F00000054
:101220001F14000000FC140000F010F01010FF105C
:10123000FF141414FF141010101F00000000F01011
:10124000FFFFFFFFFFF0F0F0F0F0FFFFFF000000F6
:101250000000FFFF0F0F0F0F0F3844443844FC4AC3
:101260004A4A347E02020606027E027E0263554925
:1012700041633844443C04407E201E2006027E0226
:101280000299A5E7A5991C2A492A1C4C7201724CA7
:10129000304A4D4D303048784830BC625A463D3E69
:1012A000494949007E0101017E2A2A2A2A2A44440A
:1012B0005F444440514A444040444A51400000FF8A
:1012C0000103E080FF000008086B6B08361236242B
:1012D00036060F090F060000181800000010100055
:1012E0003040FF0101001F01011E00191D171200EF
:1012F0003C3C3C3C00000000000000210024002792
:10130000002A002D00300033000101000004010715
:10131000010A0100000A0B02090C0D0E0807030464
:1013200001000000000000000000000000000000BC
:10133000000000000000000000000000000000129B
:10134000111000000000000000000000000000007C
:1013500000000000000000000000F14F11241FBE3B
:10136000CFEFD1E2DEBFCDBF00E00CBF14E0A0E0C4
:10137000B2E0E6EBFEEA00E00BBF02C007900D9280
:10138000AA36B107D9F72DE0AAE6B4E001C01D9254
:10139000AE3AB207E1F719E0CEEAD9E000E006C0C4
:1013A00021970109802FFE010E947D52CD3AD1077D
:1013B00080E00807A9F70E94EA3C0C9459570C9466
:1013C0000000EF92FF920F931F93CF93DF931F9232
:1013D0001F92CDB7DEB78C017A0162307105A1F1A1
:1013E00038F46115710559F06130710571F056C01E
:1013F0006330710579F16630710598F14FC0FC01D9
:1014000081A992A9A3A9B4A94BC0AE014F5F5F4FB8
:1014100064E40E949E23811149C0998120E030E05C
:10142000392F330FA90160E070E0232B51F5F8014B
:1014300045A956A967A970ADF7014083518362831E
:101440007383F80116A232C0FC0181AD92ADA3AD49
:10145000B4AD26C0FC01FD9680819181A281B3814B
:101460001FC0AE014F5F5F4F64E60E949E23811153
:101470001DC0298180E090E0922F990FA0E0B0E09C
:101480000FC0F7014083518362837383F80145AB3A
:1014900056AB67AB70AF91E096A308C08CEF06C067
:1014A000F70180839183A283B38380E00F900F9034
:1014B000DF91CF911F910F91FF90EF900895682FCA
:1014C0008CE69AE00E94711C80E090E008952F92D3
:1014D0003F924F925F926F927F928F929F92AF92C4
:1014E000BF92CF92DF92EF92FF920F931F93CF9311
:1014F000DF93CDB7DEB7EB970FB6F894DEBF0FBE24
:10150000CDBF7C016B01DC0150961C9241E060E88C
:101510000E94442441E06FEFC7010E94442440E050
:1015200060E0C7010E944424F701E95DFE4F40815D
:1015300061E9C7010E94442441E060E0C7010E94C4
:10154000442440E06FEFC7010E94442440E060E87B
:10155000C7010E94442441E060E0C7010E94442486
:1015600091E09983811123C0812C912C5401BFEF0C
:101570008B1A9B0AAB0ABB0A998190FF10C081119C
:1015800032C0E8EC8E169104A104B10471F0AE01F2
:101590004F5F5F4F60E0C7010E94CD23E8CFF8ECBA
:1015A0008F169104A104B10411F489EF94C2811142
:1015B00092C2C7010E94713781118DC283E0F70189
:1015C000E15EFE4F80830CE010E020E030E0AE01F1
:1015D000465E5F4F64E1B29680810E948522892B2E
:1015E00051F08CEE78C2B8EC8B169104A104B104D2
:1015F00009F071C2DACFF601168AD6011082118283
:10160000128213822CA130E0322F22278DA1280FC5
:10161000311D1482158216821782E9A1F0E0CF01F4
:10162000982F8827990F99AB88AB4C01A12CB12C2E
:101630001C968D929D92AD92BC921F978BA190E0CB
:10164000982F8827990FA0E0B0E0F601808B918B4E
:10165000A28BB38B2C8C312C322C22248D8D280E16
:10166000311C358A248A0A8DD701A75CBE4F4D9163
:101670005C9111975B971C91483EF3E05F07F1F195
:10168000249FC001259F900D349F900D11248C50F4
:101690009E4F68EE73E00E9414529B01D7015D9645
:1016A0008D919D910D90BC91A02D8CAB9DABAEAB5F
:1016B000BFABF701428D442309F1289E2001299EEA
:1016C000500C389E500C1124452C5524612C712C43
:1016D00084149504A604B70429F4111112C020EE55
:1016E0003AE822C0A8A9B9A90E948D52A501940187
:1016F00024193509460957090E943C521123A1F0CB
:1017000002C028EB32E2C901969587959695879598
:10171000D60119969C938E9318972295220F220F2B
:10172000207C57962C9304C0F60131872087178AB6
:101730001FA61EA6087710E0A3E015950795AA95A9
:10174000E1F70BAF0115110561F0802F8D7F85301A
:1017500059F0F1E0F8AF84EF800F843038F018AE24
:1017600005C021E028AF02C031E038AF41E06FEFA3
:10177000C7010E944424811107C0AE01425D5F4F42
:1017800066EBC7010E949E239EA5412C512C592E29
:10179000550C612C712C811105C040E06FEFC70121
:1017A0000E944424F701EE5CFE4F40825182628227
:1017B000738281117FC1D7019596BC91BAAFBB23CB
:1017C00009F47DC0D6011C968D919D910D90BC9120
:1017D000A02D88AB99ABAAABBBABF701828D882358
:1017E000A9F0F601A489B589F701258D368D478DBD
:1017F00050A10E94A352DC01CB0180589F4FAF4FF4
:10180000BF4F892F9A2FAB2FBB2703C080E090E0FA
:10181000DC0128A939A94AA95BA9280F391F4A1F49
:101820005B1FA8EEB3E00E94A352DC01CB019058ED
:10183000AF4FBF4FCD01AA27BB27F701E65DFE4F93
:10184000892B8A2B8B2B69F48EEA97E8AFE8B2E0FC
:1018500080839183A283B3838CAB9DABAEABBFABD4
:1018600008C010821182128213821CAA1DAA1EAA0D
:101870001FAAD6011B961C921E921A97AE01465DB6
:101880005F4F60E070E0C7010E94E109282F4AA580
:101890005BA56CA57DA5411551056105710559F044
:1018A000B1E0B8AB8CA99DA9AEA9BFA9481759074B
:1018B0006A077B0708F018AA222311F0FDC018AAB6
:1018C000D7019796BC91B9AFBB23E1F0AE014A5D59
:1018D0005F4F62E070E0C7010E94E1094EA15FA185
:1018E00068A579A5411551056105710539F0E1E05B
:1018F000ECAB441555056605770508F01CAA88234E
:1019000011F0DCC01CAAD70198967C90772069F171
:101910002114310461F09A2D892D782D66279101CB
:1019200040E050E00E943C5249015A0103C0812C22
:10193000912C5401AE014F5F5F4F63E070E0C7012F
:101940000E94E10949815A816B817C8141155105D1
:101950006105710531F091E084169506A606B7067B
:1019600008F090E0882311F026C090E0B8AD8FEF2A
:10197000B13039F1800F833008F4A3C0EBADE6300D
:1019800009F4A1C0E93009F49EC0802F8D7F883012
:1019900009F49BC0FCA9F13009F497C0E43009F4C4
:1019A00096C0913009F493C028A9213009F491C060
:1019B00018AA90E01CAAD6011B961C921E921A9798
:1019C00080E0F70136A1FAAD21E0FF2321F048A91C
:1019D000413009F020E0D7019B962C9321E00430A0
:1019E000110511F0311120E0F70124A7F9AD21E034
:1019F000FF2321F03CA9313009F020E0D7019D966A
:101A00002C9321E0772019F0913009F020E0F701C4
:101A100026A7D60158968C931701BAE42B0E311CD9
:101A200099E1F101DE01119601900D929A95E1F78D
:101A3000D6011896ED91FC91199757969C9157975E
:101A40001A966D917C911B971C964D905D906D90B0
:101A50007C901F9750968D909D90AD90BC90539721
:101A600054964D915C91559714960D911D912D9121
:101A70003C9117970D831E832F833887FA87E98758
:101A80007C876B874D865E866F86788A898A9A8A7C
:101A9000AB8ABC8A5E8B4D8B988F898F89E1FE0162
:101AA0003196D10101900D928A95E1F7C7010E940C
:101AB000E63211C018AA1AAE1CAA19AE712C90E019
:101AC0007ACF85E07ECF84E07CCF83E07ACF82E05E
:101AD00078CF81E076CFEB960FB6F894DEBF0FBEDD
:101AE000CDBFDF91CF911F910F91FF90EF90DF90CD
:101AF000CF90BF90AF909F908F907F906F905F90AE
:101B00004F903F902F9008953F924F925F926F9227
:101B10007F928F929F92AF92BF92CF92DF92EF927D
:101B2000FF920F931F93CF93DF9300D01F92CDB7F7
:101B3000DEB78A01AE014F5F5F4F0E947725382ED6
:101B4000811136C049805A806B807C8088EE882E57
:101B500083E0982EA12CB12CC301B201A501940100
:101B60000E943C5269017A01A8EEB3E00E94A352A0
:101B7000A3019201261B370B480B590BAFEFBFEFA8
:101B80000E94A3526C507E4F8F4F9F4FA50194012E
:101B90000E943C527601DD24CC24DA01C9018C0D6F
:101BA0009D1DAE1DBF1DF80180839183A283B38369
:101BB000832D0F900F900F900F90DF91CF911F9179
:101BC0000F91FF90EF90DF90CF90BF90AF909F90DC
:101BD0008F907F906F905F904F903F9008950F93FC
:101BE0001F93CF93DF931F92CDB7DEB78B0119827E
:101BF000AE014F5F5F4F61E00E94CD23811116C09F
:101C0000998194FB222720F9F801208393FB222756
:101C100020F9228392FB222720F9218396FB222799
:101C200020F92383991F9927991F94830F90DF919F
:101C3000CF911F910F9108955F926F927F928F9233
:101C40009F92AF92BF92CF92DF92EF92FF920F934B
:101C50001F93CF93DF93CDB7DEB761970FB6F8949C
:101C6000DEBF0FBECDBF7C018B01FC018089FB0173
:101C70008083AE014A5F5F4F68EFC7010E949E23D9
:101C8000582E811127C0AE014F5F5F4F64E0C7013E
:101C90000E945B23582E81111DC02E813F8121158A
:101CA000310569F040E050E069817A818B819C8147
:101CB0000E943C52F8012683378340875187F80100
:101CC00086819781A085B185F701868B978BA08F40
:101CD000B18F02C0511053C1F8011286AE014F5F9F
:101CE0005F4F60E2C7010E949E23582E811147C1B9
:101CF00089819A81009769F4F701858D968DA78D6A
:101D0000B0A1F80185879687A787B08BF701128E5F
:101D100013C033E0880F991F3A95E1F7A0E0B0E0D7
:101D2000F80185879687A787B08BF701858F968FF7
:101D3000A78FB0A381E0828FAE014F5F5F4F68E253
:101D4000C7010E949E23582E811119C189819A8151
:101D50009F708115F8E09F0708F090514AEF489F67
:101D60009001499F300D1124C901330FAA0BBB0B01
:101D7000F801818B928BA38BB48B5801F1E2AF0EEB
:101D8000B11C370125E2620E711C480185E1880E05
:101D9000911CC12CD12CA501B601C7010E94E109FB
:101DA000582E8111ECC0F30181913F01F401819320
:101DB0004F01FFEFCF1ADF0A24E0A20EB11C86E02C
:101DC000C816D10441F7AE014F5F5F4F61E0C70114
:101DD0000E94CD23582E8111D2C08981F701E35E84
:101DE000FE4F808387FF04C081E0F80181AF02C00D
:101DF000F80111AEF80181ADF701E75BFF4F808379
:101E000080ED97E0A0E0B0E08A879B87AC87BD8734
:101E10001E821F821886198686E39BE0A0E0B0E050
:101E2000F80182839383A483B583BE016F5F7F4FE4
:101E3000C7010E94EF0D582E8111A1C08981811127
:101E400007C08A81811104C08B81882309F449C0AD
:101E5000AE01465F5F4F62E0C7010E9477258111A6
:101E60008DC089818823A9F08A859B85AC85BD8535
:101E7000825B9D4FAF4FBF4FF80142815381648118
:101E80007581840F951FA61FB71F82839383A48338
:101E9000B5838B81882369F08A859B85AC85BD8558
:101EA0008E549D4FAF4FBF4F880F991FAA1FBB1F66
:101EB0000BC08A818823A9F08A859B85AC85BD8566
:101EC0008C569D4FAF4FBF4FF801428153816481C3
:101ED0007581840F951FA61FB71F82839383A483E8
:101EE000B5838C818823F1F0AE014A5F5F4F63E0D8
:101EF000C7010E9477254E815F81688579854C56A0
:101F00005D4F6F4F7F4FF80182809380A480B58032
:101F1000480D591D6A1D7B1D42835383648375835D
:101F200081112CC08D8181110BC0F80182819381B8
:101F3000A481B581F701828B938BA48BB58B1FC0D5
:101F4000AE01425F5F4F64E0C7010E9477254E8576
:101F50005F85688979894A5D5D4F6F4F7F4FF801D2
:101F600082809380A480B580480D591D6A1D7B1D19
:101F700042835383648375838823B9F2582E852D59
:101F800061960FB6F894DEBF0FBECDBFDF91CF9143
:101F90001F910F91FF90EF90DF90CF90BF90AF9087
:101FA0009F908F907F906F905F900895DC0180E00C
:101FB000615090F09D919827E92FEF70F0E0E75E77
:101FC000F24F249192959F70E92FF0E0E75DF24F78
:101FD000E4918E2F8227ECCF0895FC01908101803F
:101FE000F281E02DF8948181892B81832281892FD0
:101FF000809528232283A7E0B0E01197F1F7218193
:1020000082238183A3E2B0E01197F1F78081789475
:10201000EFECF0E03197F1F7982381E009F480E0EC
:102020000895FC0190810180F281E02D892F809537
:1020300060FF12C0F8942281822382838181892BE0
:102040008183A3E2B0E01197F1F78281982B92830C
:10205000789487ED90E011C0F894228182238283E6
:102060008181892B8183AFEFB0E01197F1F78281F5
:10207000982B928378948FE090E00197F1F7089580
:10208000CF92DF92EF92FF920F931F93CF93DF9344
:102090001F92CDB7DEB76C01E62E08E010E0FF24FA
:1020A000F39461E08F2D8E2109F460E0C60149832D
:1020B0000E941110FF0C01501109498101151105F1
:1020C00081F7411115C0F894D6011196ED91FC915C
:1020D000129791818C918095892381831196ED913E
:1020E000FC91129792818C918095892382837894B8
:1020F0000F90DF91CF911F910F91FF90EF90DF90A4
:10210000CF900895CF92DF92EF92FF920F931F939B
:10211000CF93DF931F92CDB7DEB78C01F62E40E050
:1021200065E579830E944010CF2C7981D72E760106
:1021300088E0E80EF11CF60161916F0140E0C801F2
:102140000E944010CE14DF04B1F70F90DF91CF91C1
:102150001F910F91FF90EF90DF90CF900895FC01B9
:1021600090810180F281E02DF8948181292F2095C2
:102170008223818378948DE743E050E0815021F100
:10218000DA011197F1F730813923C1F3F894828194
:10219000822382838181892B81837894ABE7B7E0A6
:1021A0001197F1F7F894818128232183A3E1B1E00D
:1021B0001197F1F78081982381E009F080E078940D
:1021C000E3E6F6E03197F1F70895AF92BF92CF9230
:1021D000DF92EF92FF920F931F93CF93DF931F92A3
:1021E000CDB7DEB75C01D62EE72EFC0185858111C7
:1021F00005C0C5010E94AF10811106C0F50113860C
:102200001586148680E065C040E060EFC5010E943D
:10221000401001E0F12CC12C11E0C5010E94ED0F2E
:10222000682FC50169830E94ED0F6981613019F43F
:102230008130B9F433C04F2D50E068131BC0F50155
:102240008385181730F4E40FF51F8381802349F448
:1022500002C0181731F060E0193058F4F501148706
:1022600008C0F501EF0DF11D8381802B838361E0B0
:1022700009C0C12EF501E40FF51F9381802F8095D1
:1022800089238383C5010E9411101F5F000F11F481
:10229000F39401E0F7E0FF1508F0BFCF113408F424
:1022A000ADCFF501C386C11002C081E08587F5017D
:1022B0008381882309F4A2CFD5011396ED2DFE2D3D
:1022C0009501255F3F4F8D918193A217B307D9F7F1
:1022D00081E00F90DF91CF911F910F91FF90EF90D0
:1022E000DF90CF90BF90AF900895AF92BF92CF9202
:1022F000DF92EF92FF920F931F93CF93DF938B01A7
:10230000BC0180916C0B90916D0B0E94821040E09B
:102310006EEB80916C0B90916D0B0E944010E80168
:10232000680189E0C80ED11CA0906C0BB0906D0BB9
:1023300088E0E82EF12C01E010E0C5010E94ED0FCD
:102340008111102B000F81E0E81AF108B1F7199301
:10235000CC15DD0549F780916C0B90916D0B0E94B7
:10236000AF1091E0813009F090E0892FDF91CF919B
:102370001F910F91FF90EF90DF90CF90BF90AF90A3
:1023800008950F931F93CF93DF93CDB7DEB72997AF
:102390000FB6F894DEBF0FBECDBFFC012081203107
:1023A00061F18C0180916C0B90916D0B0E94AF10CC
:1023B000882309F1BE016F5F7F4FC8010E9475112C
:1023C0008823C9F068E0CE0101960E94D60F998556
:1023D000891311C08D818F3361F020F48F3159F44E
:1023E00089E00CC08F3519F08F3739F004C08BE0CD
:1023F00005C08AE003C080E001C08CE029960FB6DA
:10240000F894DEBF0FBECDBFDF91CF911F910F912A
:1024100008958F929F92AF92BF920F931F93CF9385
:10242000DF93CDB7DEB7A1970FB6F894DEBF0FBE2E
:10243000CDBF19A2423008F44AE08E010F5D1F4F54
:10244000842E912CA12CB12CA50194010E943C5208
:10245000E62FB901CA0101501109EA3014F4E05D18
:1024600001C0E95CD801EC93232B242B252B61F7C9
:10247000B8018CE69AE00E94761DA1960FB6F894FA
:10248000DEBF0FBECDBFDF91CF911F910F91BF90E7
:10249000AF909F908F900895CF92DF92EF92FF922E
:1024A000CF93DF936C01990FEE08FF08F7FE1AC077
:1024B000E0916C0AF0916D0A0190F081E02D6DE2DF
:1024C0008CE69AE01995EC0166277727CB016C1909
:1024D0007D098E099F094AE00E9409127C01EC0ED9
:1024E000FD1E06C04AE0C701B6010E9409127C0128
:1024F0006CEE73E08CE69AE00E94761D8E0D9F1DB7
:10250000DF91CF91FF90EF90DF90CF9008952091D1
:10251000EF099091EE09213208F04AC08091CB0971
:102520008111FCCF32E03093CB0931E03093CA09FE
:102530003FEF3093C9091092C8092093C709AEEC48
:10254000B9E047EA59E0FA013E2F341B321718F47C
:102550003D913193F9CF1092A6092091A609990FC8
:10256000922B9093A6099091A509913061F4109255
:10257000A5099091A6099093BB009091BC0093FD92
:10258000F8CF95EC01C095EE9093BC009091CB09EB
:102590009230E1F39091C9099F3F79F08091C90988
:1025A000803241F08091C909803331F084E005C068
:1025B00081E003C082E001C083E01092CD09109257
:1025C000EF091092CC090895AF92BF92CF92DF929B
:1025D000EF92FF920F931F93CF93DF931F921F925F
:1025E000CDB7DEB77C015B016A01198241E06FEF74
:1025F0002A830E944424182F40E060E0C7010E9413
:102600004424182B40E06FEFC7010E944424182B8C
:102610002A81222331F0A5016BECC7010E94CD2352
:10262000182B002341F0AE014F5F5F4F6EEEC701E4
:102630000E94CD23182B41E06FEFC7010E94442474
:10264000182B41E060E0C7010E944424182B40E0B1
:102650006FEFC7010E94442499819F7EF601908309
:10266000812B0F900F90DF91CF911F910F91FF90D1
:10267000EF90DF90CF90BF90AF9008950895FC0148
:102680006370658B8481958126813781613039F053
:10269000633029F0918780873387228708953187B7
:1026A00020879387828708952F923F924F925F925F
:1026B0006F927F928F929F92AF92BF92CF92DF9252
:1026C000EF92FF920F931F93CF93DF93CDB7DEB7B7
:1026D0006C970FB6F894DEBF0FBECDBF9C8F8B8F6B
:1026E0005B011A011F830E833701C982DC015896F2
:1026F0004D915C9159974115510509F0E5C0189627
:102700008D919C911997681779070CF0CAC11A9698
:102710008D919C911B97281639060CF0C2C18C2C08
:10272000912CFB0136E0C39EE00DF11D1124FB87C7
:10273000EA871E161F060CF0B4C1C40133E0880FEF
:10274000991F3A95E1F79D878C87820D931D181686
:1027500019060CF0A6C157968C91811103C0203B3D
:1027600008F02F5FAB8DBC8DED91FC911197028429
:10277000F385E02DCD012A8F19952A8DB5E02B9F89
:1027800090011124F5013596FF87EE87BB82AA825E
:102790002501A9014A195B09598B488BC10108968B
:1027A0009B8B8A8BE889F989E40DF51DE750F24F80
:1027B0009491988761013D822C82A885A0FF13C067
:1027C000AB8DBC8DED91FC91B981B13031F40484B5
:1027D000F585E02D2E813F8116C00684F785E02D1A
:1027E000EE80FF801AC0EE81FF816E167F06F1F049
:1027F000AB8DBC8DED91FC91B981B13051F4048465
:10280000F585E02D9301A601B2018B8D9C8D199564
:102810000DC00684F785E02D7301840194014C817D
:102820005D816A817B818B8D9C8D1995E885E6950C
:10283000E887FFEFCF1ADF0A2C813D81280D391D73
:102840003D832C834A895B89C416D50609F0B5CF30
:102850005FEF451A550A8A819B81880D991D9B83DC
:102860008A83AE85BF854A165B0609F09BCFEE8151
:10287000FF816E167F0609F4F2C0EB8DFC8DA081FE
:10288000B181F981F13079F4B5016B5F7F4F5096DA
:10289000ED91FC915197830128E030E0A1018B8DEF
:1028A0009C8D1995DCC06A857B85681979091E960F
:1028B000ED91FC911F9773010C851D859401A10179
:1028C0008B8D9C8D1995CBC0FA01349694913297DB
:1028D00065917491291BCB01B7E02B9F800D911D51
:1028E0001124FA01259134913B8B2A8BFC014591EF
:1028F00054915B834A83FC013296C4903196549183
:102900005E87329614913196D4908981823058F046
:10291000612E012E000C7708AD2D0D2C000CBB0B89
:10292000B987A88704C019861886612C712CAB8DD5
:10293000BC8DED91FC9111970284F385E02DCD01C2
:102940001995B9818B2E912C689CC001699C900DC2
:10295000789C900D1124FC01EA0DFB1DFD87EC878E
:102960001C82712C612CE12F110FFF0B95012E0F92
:102970003F1F3B872A87AC0CB11CA5014E0F5F1F80
:102980005F8B4E8BC1018D0D911DD7FC9A95998F50
:10299000888F4E85641608F062C0862D90E04885C9
:1029A0005985480F591F489D9001499D300D589DEC
:1029B000300D1124D901A20DB31DB98BA88BAA84A7
:1029C000BB844C845D84DC80BA85DB1AE88DF98D8C
:1029D000E80FF91FFD8BEC8B8D2D8A0D2E893F8919
:1029E000A216B306B9F1877061F48A819B810196C2
:1029F000EA89FB89AA81BB81EA0FFB1F74909B8344
:102A00008A8377FE20C0AB8DBC8DED91FC91B9819E
:102A1000B13061F40484F585E02D2E813F814C892D
:102A20005D89B5018B8D9C8D19950DC00684F78548
:102A3000E02DEE80FF808401940148895989B2011C
:102A40008B8D9C8D1995770CEFEFAE1ABE0A480C52
:102A5000591CC2CF3C813C0D3C8363949ACFAB8D13
:102A6000BC8DED91FC9111970688F789E02DCD0181
:102A70006C960FB6F894DEBF0FBECDBFDF91CF913D
:102A80001F910F91FF90EF90DF90CF90BF90AF908C
:102A90009F908F907F906F905F904F903F902F907E
:102AA00019946C960FB6F894DEBF0FBECDBFDF91C0
:102AB000CF911F910F91FF90EF90DF90CF90BF903B
:102AC000AF909F908F907F906F905F904F903F90CE
:102AD0002F900895AF92BF92CF92EF92FF920F93F3
:102AE0001F93CF93DF93EC01262F888D998D00974C
:102AF00009F040C06A3059F41D861C862C898E85E9
:102B00009F8538E0239F800D911D112441C06D30B9
:102B100009F4AAC08E898823C1F03C898C859D85E3
:102B200046E0349F800D911D112448855985481732
:102B300059075CF41D861C868E859F8548E0349F6E
:102B4000800D911D11249F878E87EA88FB88088954
:102B500019894E855F856C857D85CC88CE010E9464
:102B600054132C898C859D8536E0239F800D911D03
:102B7000112442C06A3079F41D861C862C89FC0120
:102B80003696E4918E859F852E9F800D911D112490
:102B90009F878E8769C06D3009F466C0FC0134964A
:102BA0003491631708F460C03196E491E61708F495
:102BB0005BC0FC013296A590B490462F50E0431BB9
:102BC000510937E0349FB001359F700D1124A60ED6
:102BD000B71EF501329634913196E491332311F00A
:102BE000E1110DC0F5013496E4912C898C859D8509
:102BF000E29F800D911D11249D878C8735C0F501C2
:102C0000359644915E89552311F16C89E32FF0E0EC
:102C1000E40FF11D47FDFA956E9FD0016F9FB00D37
:102C200011244C855D854A0F5B1FE885F985E41703
:102C3000F5076CF41D861C86FC013696E4918E85A2
:102C40009F856E9F800D911D11249F878E87EA8836
:102C5000FB88088919894E855F856C857D85CC88C0
:102C6000CE010E945413BECF81E090E0DF91CF915E
:102C70001F910F91FF90EF90CF90BF90AF9008956C
:102C80006F927F928F929F92AF92BF92CF92DF927C
:102C9000EF92FF920F931F93CF93DF93EC014B01C1
:102CA0005A0169013801E881F9810284F385E02D38
:102CB0001995E881F9810288F389E02D8701960151
:102CC000A501B401CE011995E881F981A501460D50
:102CD000571D415051090288F389E02D9601B40136
:102CE000CE011995E881F9810088F189E02D9301E1
:102CF000A501B401CE011995E881F981C80CD91C50
:102D0000B601615071090088F189E02D9301A50198
:102D1000CE011995E881F9810688F789E02DCE0169
:102D2000DF91CF911F910F91FF90EF90DF90CF90A7
:102D3000BF90AF909F908F907F906F901994CF929B
:102D4000DF92EF92FF920F931F93CF93DF9300D008
:102D500000D0CDB7DEB76C01DC01ED91FC916217BC
:102D6000730789F4041715072CF4942F852FA801F5
:102D7000092F182F041B150B98012F5F3F4F048C50
:102D8000F58DE02D12C04017510709F526173707BA
:102D90002CF4962F872FB901292F382F261B370B9C
:102DA0002F5F3F4F068CF78DE02D8701C6011995E7
:102DB00026960FB6F894DEBF0FBECDBFDF91CF9140
:102DC0001F910F91FF90EF90DF90CF9008950284B4
:102DD000F385E02D2D833E834B835C8369837A8367
:102DE0001995D601ED91FC910488F589E02D2D818E
:102DF0003E814B815C8169817A81C6011995D6013A
:102E0000ED91FC910688F789E02DC60126960FB654
:102E1000F894DEBF0FBECDBFDF91CF911F910F9110
:102E2000FF90EF90DF90CF901994EF92FF920F9365
:102E30001F93DC01ED91FC9111971A960D911C9155
:102E40001B9718962D913C91199700A0F1A1E02DA8
:102E50007B0140E050E060E070E019951F910F9118
:102E6000FF90EF9008954F925F926F927F928F92B2
:102E70009F92AF92BF92CF92DF92EF92FF920F9309
:102E80001F93CF93DF931F921F92CDB7DEB76C01D4
:102E90005A0139014801DC01ED91FC910284F3856E
:102EA000E02D69837A8319956981462E7A81572EA0
:102EB000640C751CD601ED91FC91461457046CF41A
:102EC0000088F189E02D87019401A501B201C601B6
:102ED0001995BFEF4B1A5B0AEDCF0688F789E02DF5
:102EE000C6010F900F90DF91CF911F910F91FF902E
:102EF000EF90DF90CF90BF90AF909F908F907F909A
:102F00006F905F904F901994AF92BF92CF92DF92E3
:102F1000EF92FF920F931F93CF93DF9300D01F92F6
:102F2000CDB7DEB75C016901DC01ED91FC91028453
:102F3000F385E02D4B835C8369837A831995D501F2
:102F4000ED91FC9169817A819B012C0D3D1D2150F1
:102F500031090488F589E02D78014B815C818A0173
:102F6000C5011995D501ED91FC910688F789E02DF1
:102F7000C5010F900F900F900F90DF91CF911F918F
:102F80000F91FF90EF90DF90CF90BF90AF9019948A
:102F9000AF92BF92CF92DF92EF92FF920F931F9367
:102FA000CF93DF9300D01F92CDB7DEB75C016901EC
:102FB000DC01ED91FC910284F385E02D4B835C8371
:102FC00069837A831995D501ED91FC914B815C81E0
:102FD000C40ED51EB1E0CB1AD1080488F589E02DC6
:102FE0007801860169817A819B01C5011995D50116
:102FF000ED91FC910688F789E02DC5010F900F90A7
:103000000F900F90DF91CF911F910F91FF90EF9054
:10301000DF90CF90BF90AF9019940895EF92FF92F8
:103020000F931F93DC01ED91FC9100A0F1A1E02D25
:1030300019951F910F91FF90EF9008950F931F9393
:10304000DC01ED91FC91068CF78DE02D19951F9117
:103050000F9108950F931F93DC01ED91FC91048C67
:10306000F58DE02D19951F910F910895DC01ED91DB
:10307000FC910084F185E02D199408952F923F92E0
:103080004F925F926F927F928F929F92AF92BF9278
:10309000CF92DF92EF92FF920F931F93CF93DF9324
:1030A00000D0CDB7DEB74C017B836A836A0159013A
:1030B00017019801241B350B37FF03C0319521956B
:1030C0003109C5014A815B81841B950B97FF03C0C1
:1030D00091958195910951E059838217930714F0D6
:1030E00019820BC09A2D8B2D5801092F182F9A8108
:1030F0008B81DB82CA82C92ED82E8A819B81A81639
:10310000B9065CF49C2D8D2D6801092F182F9A812A
:103110008B81BB82AA82A92EB82E2501AA81BB81F0
:103120004A1A5B0A38016C187D0877FE03C0719457
:1031300061947108720157FE03C0BFEFEB1AFB0ADE
:10314000F594E794C016D1061CF00FEF1FEF1FC0D7
:1031500001E010E01CC0D401ED91FC91B981048420
:10316000F585E02D9101BB23C1F04A815B81B60159
:10317000C4011995E618F708F7FE04C0C00ED11E69
:10318000E40CF51CEA81FB813196FB83EA834A81DA
:103190005B81A416B506FCF604C0A6016A817B819A
:1031A000E7CF0F900F900F90DF91CF911F910F916C
:1031B000FF90EF90DF90CF90BF90AF909F908F9057
:1031C0007F906F905F904F903F902F90089585ED86
:1031D0008093BC008091BC0084FDFCCF1092CB0991
:1031E00008950895E0915D0D80915C0DE81730F42D
:1031F000F0E0E45CF24F808190E008958FEF9FEF64
:10320000089590915D0D80915C0D981750F4E92F11
:10321000F0E0E45CF24F208130E09F5F90935D0D21
:1032200002C02FEF3FEFC90108950F931F93CF9373
:10323000DF931F92CDB7DEB78C01DC01ED91FC91DD
:103240000284F385E02D698319956981611102C0BB
:1032500060E201C061E2C8010E943031D801ED9105
:10326000FC910688F789E02DC8010F90DF91CF917E
:103270001F910F9119941F93CF93DF93EC0163700B
:103280006D8B6230C1F0633001F1613051F080E448
:1032900091E09987888780EE91E09B878A8710EC80
:1032A0001DC080EE91E09987888780E491E09B873C
:1032B0008A8710EA13C080E491E09987888780EEBE
:1032C00091E09B878A8710E009C080EE91E09987A2
:1032D000888780E491E09B878A8710E6E881F981FE
:1032E0000284F385E02DCE01199566E3CE010E949C
:1032F0003031612FCE010E94ED30E881F9810688DE
:10330000F789E02DCE01DF91CF911F9119948F9213
:103310009F92AF92BF92CF92DF92EF92FF920F9364
:103320001F93CF93DF93EC01490181E0881A910844
:10333000860E971EC401A0E0B0E04B01A12CB12C79
:10334000540199248824882A992AAA2ABB2A680128
:1033500081E0C81AD108C40ED51EC601A0E0B0E0B5
:103360006A01E12CF12C7601DD24CC24C82AD92A6B
:10337000EA2AFB2A6AE2CE010E9430310FA518A981
:1033800029A93AA96B2D77278827992737FF18C0D5
:103390006EBD0DB407FEFDCFC501AA27BB278EBDAC
:1033A0000DB407FEFDCFBB27AB2D9A2D892D8EBD09
:1033B0000DB407FEFDCF8EBC0DB407FEFDCF14C0CB
:1033C000CE010E94ED30B50188279927CE010E94D9
:1033D000ED3099278B2D7A2D692DCE010E94ED308D
:1033E000682DCE010E94ED306BE2CE010E9430319B
:1033F0008FA498A8A9A8BAA86F2D772788279927FE
:10340000B7FE18C06EBD0DB407FEFDCFC701AA27D9
:10341000BB278EBD0DB407FEFDCFBB27AF2D9E2D64
:103420008D2D8EBD0DB407FEFDCFCEBC0DB407FEB5
:10343000FDCF14C0CE010E94ED30B7018827992737
:10344000CE010E94ED3099278F2D7E2D6D2DCE015E
:103450000E94ED306C2DCE010E94ED306CE2CE0169
:10346000DF91CF911F910F91FF90EF90DF90CF9060
:10347000BF90AF909F908F900C943031EF92FF925D
:103480000F931F93CF93DF93EC0177FD32C08885B4
:103490009985681779076CF557FD2BC08A859B8540
:1034A0004817590734F5E32EF22E01E010E021E031
:1034B00030E0CE010E9487198FA598A9A9A9BAA9C1
:1034C000B7FF09C0EEBC0DB407FEFDCFFEBC0DB4C6
:1034D00007FEFDCF0EC06E2DCE010E94ED306F2D88
:1034E000CE01DF91CF911F910F91FF90EF900C943F
:1034F000ED30DF91CF911F910F91FF90EF900895E4
:103500001F920F920FB60F9211240BB60F922F93AA
:103510003F934F935F936F937F938F939F93AF935B
:10352000BF93EF93FF938091B900887F803609F4B1
:103530009CC068F5883209F45BC090F4803109F4CE
:1035400054C038F4882309F4F6C0883009F44DC01B
:10355000F6C0883109F44CC0803209F45DC0EFC078
:10356000803409F468C048F4803309F455C08833C6
:1035700009F0E5C08093C909D8C0803509F44FC06F
:10358000883509F45DC0883409F0D9C0D6C08839BF
:1035900009F4C7C0A8F4883709F467C038F488363E
:1035A00009F463C0803709F460C0C9C0883809F4E1
:1035B000B8C0803909F45FC0803809F0C0C05BC072
:1035C000803B09F486C038F4803A09F466C0883A32
:1035D00009F47FC0B4C0803C09F4A7C0883C09F45A
:1035E000A4C0883B09F48AC0AAC08091A60910C073
:1035F0009091C8098091C709981770F5E091C809A2
:1036000081E08E0F8093C809F0E0E955F64F808184
:103610008093BB0085EC86C08093C9098EC0E09181
:10362000C80981E08E0F8093C8098091BB00F0E04B
:10363000E955F64F80839091C8098091C7096EC003
:10364000E091C80981E08E0F8093C8098091BB008A
:10365000F0E0E955F64F80838091CA0981116DC071
:1036600081E08093A50984EA61C083E08093CB095F
:103670001092A40DCFCF8091A40D803208F051C0DC
:10368000E091A40D81E08E0F8093A40D8091BB008A
:10369000F0E0EC57F24F8083BDCF85EC8093BC0007
:1036A0001092CB098091A40D803230F4E091A40DEA
:1036B000F0E0EC57F24F10826091A40D70E0E091C1
:1036C000820DF091830D84E89DE019951092A40D70
:1036D00036C084E08093CB091092810D1092800D4A
:1036E000E0917E0DF0917F0D19958091800D8111F3
:1036F00005C081E08093800D10925E0DE091810DF8
:1037000081E08E0F8093810DF0E0E25AF24F8081CC
:103710008093BB009091810D8091800D981708F4E3
:1037200079CF85E88093BC000AC085EC8093BC000B
:103730001092CB0904C01092C9090E94E718FF91AA
:10374000EF91BF91AF919F918F917F916F915F9119
:103750004F913F912F910F900BBE0F900FBE0F9086
:103760001F9018954091800D262F30E0240F311DB9
:1037700021323105DCF42091CB092430C9F4FC015D
:1037800080E090E0861758F43091800D2191DC01A3
:10379000A25AB24FA30FB11D2C930196F3CF809183
:1037A000800D680F6093800D80E0089581E008959A
:1037B00082E00895CF92DF92EF92FF920F931F93D2
:1037C000CF93DF936C017A018B01C0E0D0E0CE157E
:1037D000DF0589F0D8016D918D01D601ED91FC9145
:1037E0000190F081E02DC6011995892B11F47E011D
:1037F00002C02196ECCFC701DF91CF911F910F91AD
:10380000FF90EF90DF90CF900895089580E090E0D2
:103810000895FC01538D448D252F30E0842F90E0D6
:10382000821B930B541710F0CF96089501970895BB
:10383000FC01918D828D981761F0828DDF01A80FB8
:10384000B11D5D968C91928D9F5F9F73928F90E0DA
:1038500008958FEF9FEF0895FC01918D828D981749
:1038600031F0828DE80FF11D858D90E008958FEF86
:103870009FEF0895FC01918D228D892F90E0805C4F
:103880009F4F821B91098F73992708958CE69AE0C8
:103890000E943A1C21E0892B09F420E0822F089530
:1038A000FC01848DDF01A80FB11DA35ABF4F2C91DD
:1038B000848D90E001968F739927848FA689B789AC
:1038C0002C93A089B1898C9180648C93938D848D85
:1038D000981306C00288F389E02D80818F7D808354
:1038E0000895EF92FF920F931F93CF93DF93EC0114
:1038F00081E0888F9B8D8C8D981305C0E889F989AC
:10390000808185FD24C0F62E0B8D10E00F5F1F4FC8
:103910000F731127E02E8C8DE8120CC00FB607FC38
:10392000FACFE889F989808185FFF5CFCE010E9421
:10393000501CF1CF8B8DFE01E80FF11DE35AFF4FB4
:10394000F0820B8FEA89FB898081806207C0EE8953
:10395000FF896083E889F98980818064808381E0C0
:1039600090E0DF91CF911F910F91FF90EF9008951C
:10397000CF93DF93EC01888D8823C9F0EA89FB8916
:10398000808185FD05C0A889B9898C9186FD0FC00D
:103990000FB607FCF5CF808185FFF2CFA889B989E2
:1039A0008C9185FFEDCFCE010E94501CE7CFDF91B7
:1039B000CF91089580E090E0892B21F00E94461C71
:1039C000811125C080E090E0892B41F080E090E0FB
:1039D000892B21F00E94000081111CC080E090E042
:1039E000892B41F080E090E0892B21F00E940000BB
:1039F000811113C080E090E0892BA1F080E090E07D
:103A0000892B81F00E94000081110AC008950E9454
:103A10000000D8CF0E940000E1CF0E940000EACF52
:103A20000C9400000895EF92FF920F931F93CF9391
:103A3000DF93DC01FB01ED90FC90119712960D9144
:103A40001C91139714962D913C91159716968D9174
:103A50009C9117976081718142815381C481D58186
:103A60002197C60FD71FA681B781CE15DF05A4F118
:103A7000215031092E0D3F1D261737076CF1119784
:103A8000A40FB51FA017B1073CF10197800F911F3C
:103A9000841795070CF16E157F050CF4B7014017DC
:103AA00051070CF4A8017183608353834283C217CA
:103AB000D3070CF49E01261B370B2F5F3F4F358336
:103AC0002483A817B9070CF4CD01841B950B01962C
:103AD0009783868381E001C080E0DF91CF911F91C1
:103AE0000F91FF90EF9008950E944C54611571055D
:103AF00079F0FB0101900020E9F73197AF01461BF7
:103B0000570BDC01ED91FC910280F381E02D1994BB
:103B100080E090E008950F931F93CF93DF93EC0123
:103B20000E94761D8C016CEE73E0CE010E94761D22
:103B3000800F911FDF91CF911F910F9108951F92D8
:103B40000F920FB60F9211240BB60F922F933F9343
:103B50004F935F936F937F938F939F93AF93BF9395
:103B6000EF93FF938CE69AE00E94501CFF91EF9137
:103B7000BF91AF919F918F917F916F915F914F9185
:103B80003F912F910F900BBE0F900FBE0F901F9083
:103B900018951F920F920FB60F9211240BB60F9229
:103BA0002F938F939F93EF93FF93E0917C0AF09173
:103BB0007D0A8081E091820AF091830A82FD12C021
:103BC00090818091850A8F5F8F732091860A82177A
:103BD00051F0E091850AF0E0E459F54F958F80931C
:103BE000850A01C08081FF91EF919F918F912F9164
:103BF0000F900BBE0F900FBE0F901F9018956695FB
:103C000066956695462F50E0542F4427550F550F63
:103C1000550F7695769590E2799F90011124BA011F
:103C2000622B732B8695869586959B01282BC9015F
:103C300008952F923F924F925F926F927F928F9250
:103C40009F92AF92BF92CF92DF92EF92FF920F932B
:103C50001F93CF93DF93CDB7DEB72C970FB6F894B1
:103C6000DEBF0FBECDBF7C876B875A014901FC01C7
:103C7000E75AFF4F0190F081E02D4280538064802D
:103C800075808681978101979C01240D351D3A83AB
:103C900029832084318431E0231A3108260C371C13
:103CA00049815A81441555052CF058874F835A860F
:103CB000498606C058864F82E981FA81FA87E987EA
:103CC000261437042CF03C822B827E826D8204C045
:103CD0007C826B823E822D8260E070E080E090E02A
:103CE0002B853C85241535053CF049815A814217C6
:103CF000530724F442E003C041E001C040E0A614B1
:103D0000B70414F4446004C02A143B040CF4486063
:103D1000841495043CF0E981FA81E815F90524F44E
:103D200032E003C031E001C030E00615170514F49D
:103D300034600AC02016310614F4386005C0411101
:103D400003C0332309F486C0232F242309F08FC036
:103D50004111342F33FF1CC06B817C816A197B09B0
:103D6000F4018B859C85E81BF90BE69FC001E79F5A
:103D7000900DF69F900D1124B8016A197B090E94DD
:103D800028528B859C85860F971F6B817C8159C03B
:103D900032FF1CC06D817E816A197B09F401AB85FD
:103DA000BC85EA1BFB0BE69FC001E79F900DF69FC9
:103DB000900D1124B8016A197B090E9428528B8545
:103DC0009C85860F971F6D817E813BC031FF1CC093
:103DD0006F817885EB85FC856E1B7F0BF801EA19F6
:103DE000FB09E69FC001E79F900DF69F900D1124FF
:103DF000B401AB85BC856A1B7B0B0E9428526A0DFF
:103E00007B1D8F8198851DC030FF1BC069857A8519
:103E1000EB85FC856E1B7F0BF801EA19FB09E69F19
:103E2000C001E79F900DF69F900D1124B401AB8562
:103E3000BC856A1B7B0B0E9428526A0D7B1D8985FD
:103E40009A85341304C05B019C878B8749CF8B0113
:103E50004C0146CF8E2DB6010E94FF1D7C019401BE
:103E6000A5016B857C8589E09BE00E949F1681E01F
:103E70002C960FB6F894DEBF0FBECDBFDF91CF9169
:103E80001F910F91FF90EF90DF90CF90BF90AF9078
:103E90009F908F907F906F905F904F903F902F906A
:103EA0000895CF93DF93FB01309791F0608171818A
:103EB00022813381237033272230310561F4EC01F4
:103EC0002D9646E450E0CE010E94E351CE0104C09D
:103ED00080E090E001C0CB01DF91CF910895AF92D7
:103EE000BF92CF92DF92EF92FF920F931F93CF93E7
:103EF000DF93CDB7DEB760970FB6F894DEBF0FBE85
:103F0000CDBF09871A872B873C874D875E876F87D0
:103F1000788B2D853E85232BA1F12F853889232B86
:103F200081F15C0188E0FE013996DE011196019075
:103F30000D928A95E1F7F501E75AFF4F8081918153
:103F4000BE016F5F7F4F02960E94131D882389F088
:103F50008E2DB6010E94FF1D0F8118852D813E8197
:103F60004B815C8169817A817C0189E09BE00E94C0
:103F70000E2CF501E659FF4F0190F081E02D81E014
:103F8000848B60960FB6F894DEBF0FBECDBFDF9175
:103F9000CF911F910F91FF90EF90DF90CF90BF9046
:103FA000AF900895AF92BF92CF92DF92EF92FF92BF
:103FB0000F931F93CF93DF93CDB7DEB760970FB604
:103FC000F894DEBF0FBECDBF09871A872B873C87C9
:103FD0004D875E876F87788B2D853E85232BA1F1DA
:103FE0002F853889232B81F15C0188E0FE01399609
:103FF000DE01119601900D928A95E1F7F501E75ADD
:10400000FF4F80819181BE016F5F7F4F02960E94BA
:10401000131D882389F08E2DB6010E94FF1D0F818C
:1040200018852D813E814B815C8169817A817C017B
:1040300089E09BE00E944016F501E659FF4F019090
:10404000F081E02D81E0848B60960FB6F894DEBF9E
:104050000FBECDBFDF91CF911F910F91FF90EF90D9
:10406000DF90CF90BF90AF9008952F923F924F92E4
:104070005F926F927F928F929F92AF92BF92CF92F8
:10408000DF92EF92FF920F931F93CF93DF93CDB701
:10409000DEB7AC970FB6F894DEBF0FBECDBF00976A
:1040A00011F480E019C261157105D9F37BA76AA7E5
:1040B0001C010E94511FFC0184AD95AD98A78FA3F0
:1040C000009779F3FC0181859285892B09F08EC1D7
:1040D0006AA57BA5C1010E94511F9A8F898FFC019F
:1040E00004ACF5ADE02DFCA3EBA3FC01658076806C
:1040F00047805084E184F284C384D484EBA1FCA182
:10410000F589F9A7EBA1FCA1F689FCA7EBA1FCA11D
:1041100082809380A080B18094012A193B0909F420
:1041200065C1032E000C440B550BF9A5FF2311F0BC
:10413000C60101C0C701A0E0B0E0BC01CD01EFE0C5
:10414000660F771F881F991FEA95D1F70E945E526C
:104150008901A114B10429F497FC48C1A12CB12C08
:104160001AC0B7FE43C1181419041CF0892809F0BD
:104170003DC19801D5010E949C5220E030E840E00A
:1041800050E00E945E5250954095309521953F4FEA
:104190004F4F5F4F590121E0E21AF108A3014E0D84
:1041A0005F1D5C8F4B8F51E0C51AD108B2016C0DB9
:1041B0007D1D7EA36DA3EBA1FCA1A481B581980117
:1041C0000E949C5220E030E840E050E00E945E52A5
:1041D00037FD11C0F9A5FF2339F0B2016A0D7B1D2F
:1041E0004B01820E931E2DC1C3018A0D9B1DFC0144
:1041F000E20FF31F10C069A5662339F042018A0C53
:104200009B1CB401620F731F1CC1F301EA0DFB1D5F
:10421000CF01820F931F8DA09EA0B2019E8F8D8F24
:104220008615970514F47E8E6D8E78A36F8F6415B6
:10423000750514F458A24F8EFAA3E9A38B8D9C8DBB
:104240008E179F0714F49AA389A399A59111DFC033
:104250009CA59923D1F08B8D9C8DE9A1FAA18E1B91
:104260009F0B93014D8D5E8D241B350B6B8D7C8DCB
:10427000620F731F7AA369A3F701EA19FB095F01B3
:104280009301280F391F3E8F2D8F262D7A82698248
:10429000442D5C824B828D8D9E8D861997090196E7
:1042A000682F9E838D838DA19EA184199509019607
:1042B00098878F833A815C817E8198850E94B6348D
:1042C000298B3A8B4B8B5C8B6D8B7E8B8F8B988F76
:1042D000E98DFA8DC288D388E48889019A01AB01FF
:1042E000BC01C1010E946F1F29A149A15AA15A8393
:1042F00049838B8D9C8D841B950B0196682F9E8323
:104300008D833A814B815C817E818F8198850E946B
:10431000B634298B3A8B4B8B5C8B6D8B7E8B8F8B62
:10432000988FE98DFA8DC288D388E48889019A0133
:10433000AB01BC01C1010E946F1F2D8D4D8D5E8DA3
:104340005A8749874F8D6F8D78A17C876B8789A1AC
:104350009AA1ED8DFE8D8E1B9F0B0196682F9E8777
:104360008D87C401EF8DF8A18E1B9F0B0196988B52
:104370008F873A855C857E8598890E94B634298B23
:104380003A8B4B8B5C8B6D8B7E8B8F8B988FEBA1DD
:10439000FCA1C384D484E58489019A01AB01BC01EA
:1043A000C1010E946F1FE98DFA8DC784D088E18812
:1043B000F9A5FF2309F488C0A2014A0D5B1D8A01FB
:1043C0002B8D3C8DB301C1010E94191EE98DFA8D20
:1043D000C784D088E1880581168127813085418591
:1043E000528563857485C1010E94D21FEFA1F8A593
:1043F000848195819783868381E08087EAA5FBA5E8
:10440000828193818F7C9383828381E065C0ECA558
:10441000E1111BC02DA13EA128193909C2014F8D00
:1044200058A1841B950B8DA09EA0880E991EB601E5
:104430006A197B095B01C201820F931F98A38F8FBA
:1044400004C0EB8DFC8DC301E9CE262D7A826982F2
:10445000442D5C824B828B8D9C8D86199709019629
:10446000682F9E838D838F8D98A18419950901965D
:1044700098878F833A815C817E8198850E94B634CB
:10448000298B3A8B4B8B5C8B6D8B7E8B8F8B988FB4
:10449000E98DFA8DC288D388E48889019A01AB013D
:1044A000BC01C1010E946F1F482D9C828B828DA18F
:1044B0009EA188199909019698878F8329813A814D
:1044C0005C816D817E8122CFB3016A0D7B1D0DA1C0
:1044D0001EA19B01A20177CFAC960FB6F894DEBF68
:1044E0000FBECDBFDF91CF911F910F91FF90EF9045
:1044F000DF90CF90BF90AF909F908F907F906F9004
:104500005F904F903F902F900895AF92BF92CF92BF
:10451000DF92EF92FF920F931F93CF93DF931F923F
:104520001F92CDB7DEB7F82E5A0181E08093CC09F7
:10453000F092EE091092CD091092EF0980E69AE010
:1045400029833A830E94963B0E9487123A812981EF
:104550008091CB098111FCCF902F013208F090E2BD
:1045600081E08093CB098093CA094FEF4093C9093A
:104570001092C809490F4093C7098093A6098091FA
:10458000A609FF0CF82AF092A6098091A5098130AE
:1045900061F41092A5098091A6098093BB008091D7
:1045A000BC0083FDF8CF85EC01C085EE8093BC0094
:1045B0008091CB098130E1F38091C809891710F40B
:1045C0009091C809A7EAB9E04CE35DE0FA018E2FAB
:1045D000841B891718F48D918193F9CF10925D0D8A
:1045E00090935C0D68017901C114D104E104F104D8
:1045F00069F080E69AE00E940119F50181935F015C
:10460000F1E0CF1AD108E108F108EECF80E090E0A8
:104610000F900F90DF91CF911F910F91FF90EF902E
:10462000DF90CF90BF90AF900895AF92BF92CF929E
:10463000DF92EF92FF920F931F93CF93DF931F921E
:104640001F92CDB7DEB75A0191E09093CC098093C9
:10465000EE091092CD091092EF0980E69AE02983C5
:104660003A830E94963B68012981E22E3A81F32E1B
:10467000C114D104E104F10469F0F50161915F0115
:1046800080E69AE00E94963BF1E0CF1AD108E1085B
:10469000F108EECF0E94871280E090E00F900F901B
:1046A000DF91CF911F910F91FF90EF90DF90CF900E
:1046B000BF90AF900895EF92FF920F931F93CF9307
:1046C000DF9300D01F92CDB7DEB77A01FC01EF5B1C
:1046D000FE4F04E010E020E030E0AE014F5F5F4F9E
:1046E00080810E948522098110E020E030E0322F95
:1046F000212F102F00274A81042B322F212F102F1A
:1047000000274B81042B322F212F102F00274C81A3
:10471000042BF7010083118322833383892B11F04B
:104720008CEE01C080E00F900F900F900F90DF9102
:10473000CF911F910F91FF90EF900895EF92FF920C
:104740000F931F93CF93DF931F921F92CDB7DEB7C6
:104750007A01FC01EF5BFE4F02E010E020E030E068
:10476000AE014F5F5F4F80810E948522298130E03A
:10477000322F22274A81242BF70131832083892B72
:1047800011F08CEE01C080E00F900F90DF91CF917F
:104790001F910F91FF90EF9008950F931F93FC01CD
:1047A000EF5BFE4F01E010E020E030E080810E94EE
:1047B0008522892B11F08CEE01C080E01F910F91B2
:1047C0000895CF92DF92EF92FF920F931F93CF93B2
:1047D000DF931F921F92CDB7DEB7D62EC42EF22ED6
:1047E000FC01EF5BFE4FE08001E010E020E030E0F4
:1047F000AE014E5F5F4F8E2D0E948522892BA9F45A
:104800009A812C2D29232F292A83298301E010E066
:1048100020E030E0AE014F5F5F4F6D2D8E2D0E9486
:104820001523892B11F480E001C08CEE0F900F90BE
:10483000DF91CF911F910F91FF90EF90DF90CF907C
:1048400008950F931F93CF93DF931F921F92CDB7BD
:10485000DEB7FC01EF5BFE4F80814A83598302E0A3
:1048600010E020E030E0AE014F5F5F4F0E94152363
:10487000892B11F08CEE01C080E00F900F90DF913A
:10488000CF911F910F9108950F931F93CF93DF93B3
:104890001F92CDB7DEB7FC01EF5BFE4F80814983ED
:1048A00001E010E020E030E0AE014F5F5F4F0E947A
:1048B0001523892B11F08CEE01C080E00F90DF9161
:1048C000CF911F910F9108952F923F924F925F9237
:1048D0006F927F928F929F92AF92BF92CF92DF9210
:1048E000EF92FF920F931F93CF93DF93CDB7DEB775
:1048F00027970FB6F894DEBF0FBECDBF6B0120E047
:1049000030E070E01C014FEB241A4EEF340A2C010A
:10491000ADED4A1AAEEF5A0A3C01BFED6B1ABEEF7D
:104920007B0A4C01EBED8E1AEEEF9E0A5C01F8ED6E
:10493000AF1AFEEFBF0AF601E20FF31F008100235A
:1049400009F495C0711193C079014FEFE41AF40A8C
:104950000F3F09F055C0D601AE0DBF1D8C917901F6
:1049600092E0E90EF11C813031F1A8F0823099F12A
:10497000833009F079C0D601AE0DBF1D8C9179014D
:1049800044E0E40EF11C90E0982F88272381820FE9
:10499000911DD50132C0D601AE0DBF1D8C9179019C
:1049A000A4E0EA0EF11C90E0982F88272381820F63
:1049B000911DF3011FC0D601AE0DBF1D8C91790171
:1049C00044E0E40EF11C90E0982F88272381820FA9
:1049D000911DD20112C0D601AE0DBF1D8C9179017F
:1049E000B4E0EB0EF11C90E0982F88272381820F12
:1049F000911DF4019183808338C08D939C9335C0C1
:104A0000053090F5D601AE0DBF1D6C917901B2E075
:104A1000EB0EF11CCE0101969F838E8380E090E027
:104A2000202F30E0821793076CF4AF01480F591F15
:104A3000DA0112964C91AE81BF814D93BF83AE8354
:104A40000196F0CFE20EF31E10E020E030E0AE0160
:104A50004F5F5F4FF10180817D830E9415237D812F
:104A6000892B19F07CEE01C07CEF970164CF872F72
:104A700027960FB6F894DEBF0FBECDBFDF91CF9162
:104A80001F910F91FF90EF90DF90CF90BF90AF906C
:104A90009F908F907F906F905F904F903F902F905E
:104AA00008950F931F93CF93DF931F92CDB7DEB777
:104AB0008A01662339F0613099F4AE014F5F5F4F90
:104AC00060E704C0AE014F5F5F4F60E50E94CD23F9
:104AD000811107C099819F5F990FF801908301C0F0
:104AE0008CEF0F90DF91CF911F910F9108952F922E
:104AF0003F924F925F926F927F928F929F92AF926E
:104B0000BF92CF92DF92EF92FF921F93CF93DF93EA
:104B1000CDB7DEB72B970FB6F894DEBF0FBECDBF73
:104B20006C011A011A8619861886633008F041C094
:104B3000AE01455F5F4F60E00E945125182F811143
:104B400008C0AE01465F5F4F66E4C6010E94CD23F8
:104B5000182FAB85B0E020E03FE24AE350E00E942E
:104B6000A3526C507E4F8F4F9F4FE8EECE2EE3E066
:104B7000DE2EE12CF12CA70196010E943C52290166
:104B80003A0176946794579447946A85862F90E00B
:104B9000A0E0B0E0BC01CD016F5F7F4F8F4F9F4F12
:104BA0000E940452640D751D861D971DA701960174
:104BB000DDC0633009F057C0AE01455F5F4F60E074
:104BC0000E945125182F8111D4C0AE01455F5F4F5F
:104BD00060E0C6010E945125182F811108C0AE0166
:104BE000485F5F4F61E5C6010E949E23182FA8848D
:104BF000B984AB85B0E020E03FE24AE350E00E9498
:104C0000A3526C507E4F8F4F9F4F48EE442E43E08F
:104C1000542E612C712CA30192010E943C52690117
:104C20007A0195013327C901A0E0B0E004C0880FE4
:104C3000991FAA1FBB1FBA94D2F70196A11DB11DDF
:104C40009C01AD0144275527C701B6010E940452BB
:104C5000F694E794D794C7946C0D7D1D8E1D9F1D0F
:104C6000A301920183C0643009F087C0BE016F5F69
:104C70007F4F0E94EF0D8C81882331F1AE01455F9B
:104C80005F4F60E0C6010E945125182F811143C07B
:104C9000AE01485F5F4F61E5C6010E949E23182F59
:104CA00028853985C9019927A0E0B0E004C0880FA4
:104CB000991FAA1FBB1F3A95D2F70196A11DB11DDE
:104CC0007C0111112AC002C0E12CF12CAE01455F1C
:104CD0005F4F61E0C6010E945125182F81111DC050
:104CE000AE014A5F5F4F61E7C6010E949E23182F05
:104CF0002E813F81D901BB27CD01A0E0B0E004C0E7
:104D0000880F991FAA1FBB1F3A95D2F70196A11DC4
:104D1000B11D6C0104C0E12CF12CC12CD12CAB8550
:104D2000B0E020E03FE24AE350E00E94A3526C5022
:104D30007E4F8F4F9F4F28EE822E23E0922EA12C84
:104D4000B12CA50194010E943C5229013A01D601DF
:104D5000AE19BF090E94A352769467945794479462
:104D6000640D751D861D971DA50194010E943C527E
:104D700008C020E030E0A90104C020E030E0A90133
:104D800010E0F1012083318342835383812F2B96DE
:104D90000FB6F894DEBF0FBECDBFDF91CF911F914C
:104DA000FF90EF90DF90CF90BF90AF909F908F904B
:104DB0007F906F905F904F903F902F9008952F922B
:104DC0003F924F925F926F927F928F929F92AF929B
:104DD000BF92CF92DF92EF92FF920F931F93CF93E8
:104DE000DF93CDB7DEB765970FB6F894DEBF0FBE81
:104DF000CDBF00ED17E020E030E00F87188B298B46
:104E00003A8B1B861C861D861E8640322EE4520776
:104E10006105710508F421C14A015B018C01BE01E5
:104E20006A5F7F4F0E94EF0D811118C12401350187
:104E300088EE481A88E0580A610871088E8181114D
:104E400007C08F81811104C08885882309F443C07D
:104E5000AE01415F5F4F62E0C8010E94772581117A
:104E6000FDC08E81882391F08F859889A989BA89A0
:104E7000825B9D4FAF4FBF4F84159505A605B705C3
:104E800008F0EBC0481A590A6A0A7B0A8885882309
:104E900069F08F859889A989BA898E549D4FAF4F43
:104EA000BF4F880F991FAA1FBB1F0BC08F8188237C
:104EB00091F08F859889A989BA898C569D4FAF4FFB
:104EC000BF4F84159505A605B70508F0C6C0481A5A
:104ED000590A6A0A7B0A89858823D9F0AE01455FA1
:104EE0005F4F63E0C8010E9477254B855C856D8527
:104EF0007E854C565D4F6F4F7F4F441555056605B7
:104F0000770508F0AAC08111A9C0441A550A660A9B
:104F1000770A8A85882309F49EC0BE016F5F7F4FA0
:104F2000C8010E94EF0D8C81882329F1AE014B5EF0
:104F30005F4F60E0C8010E945125811186C0AE011B
:104F40004D5E5F4F61E5C8010E949E23EB89FC899D
:104F500081117BC0AF01552760E070E004C0440FB1
:104F6000551F661F771FFA95D2F74F5F5F4F6F4F40
:104F70007F4F1A0102C0212C312CAE014B5E5F4FD6
:104F800061E0C8010E94512581115FC0E6E24E1A1E
:104F9000E2E05E0A61087108AD89B0E020E03FE21E
:104FA0004AE350E00E94A3526C507E4F8F4F9F4FB8
:104FB00028EE33E040E050E00E943C5269017A0163
:104FC000A8EEB3E0A30192010E94A352A7019601AB
:104FD0005695479537952795620F731F841F951F28
:104FE000A70196010E943C52220D331D2115310567
:104FF000E9F0A90160E070E04150510961097109CF
:10500000E12CF12CDB01CA018827892B8A2B8B2B01
:1050100041F07695679557954795FFEFEF1AFF0A90
:10502000F1CFFE2CEE244E0D5F1D02C040E050E09B
:1050300061E7C8010E942124811107C0F801E153F2
:10504000FF4F4082518262827382F801828A938A82
:10505000A48AB58A03C080E001C08CEF65960FB6C4
:10506000F894DEBF0FBECDBFDF91CF911F910F919E
:10507000FF90EF90DF90CF90BF90AF909F908F9078
:105080007F906F905F904F903F902F9008952F9258
:105090003F924F925F926F927F928F929F92AF92C8
:1050A000BF92CF92DF92EF92FF920F931F93CF9315
:1050B000DF93CDB7DEB7E0970FB6F894DEBF0FBE33
:1050C000CDBF1AA21BA21CA21DA21E8E1F8E18A24B
:1050D00019A26C012FEDC20ED11CF6017080F7E011
:1050E0007F1609F4DAC2E62E8C0141E060E80E94E6
:1050F0004424F82E41E06FEFC8010E944424F82AAE
:1051000040E060E0C8010E944424F82A46E06FEFC6
:10511000C8010E944424F82AAE01445D5F4F63E851
:10512000C8010E94CD23F82A4CA5446063E8C80159
:105130000E944424F82A47E06FEFC8010E944424EB
:10514000F82A41E061E8C8010E944424F82A1A8E36
:105150001B8E1C8E1D8E8A8D9B8DAC8DBD8D8A3FC6
:105160009105A105B10568F400008A8D9B8DAC8D79
:10517000BD8D0196A11DB11D8A8F9B8FAC8FBD8FF8
:10518000EACF41E060E8C8010E944424F82A2E2DAD
:1051900021702EA7E0FE57C070FC55C04BE664E9B5
:1051A000C8010E944424B82EC8010E9439378B29B7
:1051B000F82AAE014A5D5F4F60E9C8010E945B2397
:1051C000F82A8EA19FA1A8A5B9A5292F2F772DA7D1
:1051D0004FE0B695A795979587954A95D1F7E82F13
:1051E000E1706E2E44E264E9C8010E944424F82A6A
:1051F000C8010E943937F82AAE014A5D5F4F60E965
:10520000C8010E945B23F82A8EA19FA128A539A579
:105210003C8B2D8B9E8B8F8B45E264E9C8010E94ED
:105220004424F82AC8010E943937F82AAE014A5DA1
:105230005F4F60E9C8010E945B23F82A88A599A501
:10524000988F898F02C0612C1DA62E2D22702FA74A
:10525000E1FE44C171FC42C142E064E9C8010E9420
:105260004424B82EC8010E9439378B29F82AAE0190
:10527000455D5F4F60E9C8010E94CD23F82A4BE7E6
:1052800064E9C8010E944424F82AC8010E94393701
:10529000F82AAE01465D5F4F60E9C8010E94CD2348
:1052A000F82A47E764E9C8010E944424F82AC801A3
:1052B0000E943937F82AAE014A5D5F4F60E9C801A4
:1052C0000E945B23F82A4EA15FA168A579A5DB01A6
:1052D000CA01E9E1B695A79597958795EA95D1F723
:1052E0008983DB01CA01F2E1B695A7959795879569
:1052F000FA95D1F78F778A83DB01CA012BE0B69547
:10530000A795979587952A95D1F78F778B83DB01A2
:10531000CA0134E0B695A795979587953A95D1F748
:105320008F778C834F70440F440F440F4CA748E78E
:1053300064E9C8010E944424F82AC8010E94393750
:10534000F82AAE014A5D5F4F60E9C8010E945B2305
:10535000F82A8EA19FA1A8A5B9A5AC01BD01EDE1D8
:105360007695679557954795EA95D1F72CA5420F05
:105370004D83AC01BD01F6E176956795579547954C
:10538000FA95D1F74F774E83AC01BD012FE07695AA
:105390006795579547952A95D1F74F774F83292FD2
:1053A0002F772887AC01BD0176956795579547956E
:1053B0004F774987982F91709295990F990F907C0C
:1053C0009CA749E764E9C8010E944424F82AC8015F
:1053D0000E943937F82AAE014A5D5F4F60E9C80183
:1053E0000E945B23F82A8EA19FA1A8A5B9A5AC01B4
:1053F000BD01EAE17695679557954795EA95D1F70E
:105400002CA5420F4A87AC01BD01F3E17695679563
:1054100057954795FA95D1F74F774B87AC01BD016A
:105420002CE076956795579547952A95D1F74F7754
:105430004C87AC01BD0135E076956795579547954A
:105440003A95D1F74F774D87982F9F71990F990F04
:105450009CA74AE764E9C8010E944424F82AC801CD
:105460000E943937F82AAE014A5D5F4F60E9C801F2
:105470000E945B23F82A8EA19FA1A8A5B9A5AC0123
:10548000BD01EEE17695679557954795EA95D1F779
:105490002CA5420F4E87AC01BD01F7E176956795CB
:1054A00057954795FA95D1F74F774F872A2F2F7742
:1054B000288BAC01BD0129E07695679557954795F6
:1054C0002A95D1F74F77498B32E0B695A7959795F6
:1054D00087953A95D1F78F778A8B1B8A2E2D24706A
:1054E00028ABE2FE9EC072FC9CC04BE764E9C80199
:1054F0000E944424B82EC8010E9439378B29F82A0B
:10550000AE014E5D5F4F60E9C8010E945B23F82A3F
:105510004CE764E9C8010E944424F82AC8010E94AB
:105520003937F82AAE01425E5F4F60E9C8010E9438
:105530005B23F82A43E764E9C8010E944424F82A5F
:10554000C8010E943937F82AAE014A5D5F4F60E911
:10555000C8010E945B23F82A8EA09FA0A8A4B9A42A
:10556000BA2CA92C982C8824AA24BB2444E764E9EB
:10557000C8010E944424F82AC8010E943937F82A39
:10558000AE014A5D5F4F60E9C8010E945B23F82AC3
:105590008EA19FA1A8A5B9A58B2F9927AA27BB27C4
:1055A000882A992AAA2ABB2A45E764E9C8010E94E9
:1055B0004424F82AC8010E943937F82AAE014A5D0E
:1055C0005F4F60E9C8010E945B23F82A8EA19FA16A
:1055D000A8A5B9A5BA2FA92F982F88271C012D019E
:1055E0004424552446E764E9C8010E944424F82A6B
:1055F000C8010E943937F82AAE014A5D5F4F60E961
:10560000C8010E945B23F82A8EA19FA1A8A5B9A575
:105610008B2F9927AA27BB27282A392A4A2A5B2AAF
:1056200006C0812C912C5401212C312C210140E009
:1056300061E8C8010E944424F82A46E06FEFC801DF
:105640000E944424F82AAE01445D5F4F63E8C8011C
:105650000E94CD23F82A4CA54B7F63E8C8010E9425
:105660004424F82A41E06FEFC8010E944424F82A3C
:1056700041E060E0C8010E944424F82A40E06FEF56
:10568000C8010E944424F82A40E060E8C8010E9452
:105690004424F82A09F080C002C0F12C7DC02EA558
:1056A000222311F070FE04C02FA5211114C025C0C3
:1056B000F801EE5FFE4F2DA5208331966082DE015A
:1056C00054967496C801835E9E4F2D912193E817DE
:1056D000F907D9F7E9CF71FC10C08BA5F801E052AA
:1056E000FF4F80838AA531968083BE016F5F7F4F15
:1056F000C8018E519F4F0E94515428A9222309F4BA
:1057000048C072FC46C08AA19BA1ACA1BDA1F80112
:10571000EB5FFE4F80839183A283B3838E8D9F8D39
:10572000A8A1B9A1349680839183A283B3833496D0
:1057300039E0880C991CAA1CBB1C3A95D1F78082D1
:105740009182A282B3822114310441045104B1F048
:10575000A2019101395141095109A8EEB3E00E941B
:10576000A352DC01CB0124E0B695A79597958795C8
:105770002A95D1F791958195910902C080E090E03A
:10578000092E000CAA0BBB0BF80184879587A6870E
:10579000B787E728F601E0828F2DE0960FB6F894E0
:1057A000DEBF0FBECDBFDF91CF911F910F91FF9054
:1057B000EF90DF90CF90BF90AF909F908F907F90B1
:1057C0006F905F904F903F902F900895FC01FF964F
:1057D000A081B1812C913E968081822B8C9308957B
:1057E000EF92FF920F931F93DC01ED91FC911197C3
:1057F0001A960D911C911B9718962D913C91199713
:1058000000A0F1A1E02D7B0140E050E060E070E0FD
:1058100019951F910F91FF90EF900895CF92DF920D
:10582000EF92FF920F931F93CF93DF9300D000D09E
:10583000CDB7DEB76C01DC01ED91FC910284F385FC
:10584000E02D2D833E834B835C8369837A83199596
:10585000D601ED91FC910684F785E02D2D813E81E6
:105860004B815C8169817A81C6011995D601ED91E0
:10587000FC910688F789E02DC60126960FB6F894AC
:10588000DEBF0FBECDBFDF91CF911F910F91FF9073
:10589000EF90DF90CF901994EF92FF920F931F93A8
:1058A000CF93DF9300D000D0CDB7DEB77C01DC0111
:1058B000ED91FC910284F385E02D2D833E834B8393
:1058C0005C8369837A831995D701ED91FC910288F5
:1058D000F389E02D2D813E814B815C8169817A8144
:1058E000C7011995D701ED91FC910688F789E02D44
:1058F000C70126960FB6F894DEBF0FBECDBFDF916D
:10590000CF911F910F91FF90EF901994EF92FF921A
:105910000F931F93CF93DF9300D000D0CDB7DEB7A6
:105920007C01DC01ED91FC910284F385E02D2D8357
:105930003E834B835C8369837A831995D701ED910C
:10594000FC910088F189E02D2D813E814B815C81A5
:1059500069817A81C7011995D701ED91FC9106887B
:10596000F789E02DC70126960FB6F894DEBF0FBE6B
:10597000CDBFDF91CF911F910F91FF90EF901994C0
:105980000F931F93CF93DF9300D000D0CDB7DEB736
:105990008C01DC01ED91FC910284F385E02D2D83D7
:1059A0003E834B835C8369837A831995D801ED919B
:1059B000FC910484F585E02D2D813E814B815C8135
:1059C00069817A81C8011995D801ED91FC91068809
:1059D000F789E02DC80126960FB6F894DEBF0FBEFA
:1059E000CDBFDF91CF911F910F911994EF92FF924C
:1059F0000F931F93DC01ED91FC910684F785E02D58
:105A0000780101E010E019951F910F91FF90EF9040
:105A10000895EF92FF920F931F93DC01ED91FC919B
:105A20000684F785E02D7801890121E030E01995A1
:105A30001F910F91FF90EF900895CF92DF92EF9218
:105A4000FF92FC0147A550A961A972A977FF1EC06A
:105A5000C3A8D4A8E5A8F6A830E040E052E16AE780
:105A600070E0C416D506E606F70640F4769567950D
:105A7000579547953F5F3630A1F737E021E0232760
:105A8000322F306A369521703CBD2DBDFC01FF964A
:105A9000A081B1812C913E968081809582238C9348
:105AA000FF90EF90DF90CF9008952F923F924F920A
:105AB0005F926F927F928F929F92AF92BF92CF929E
:105AC000DF92EF92FF920F931F93CF93DF93CDB7A7
:105AD000DEB76C970FB6F894DEBF0FBECDBF9A8BC2
