:100000000C94AE090C94DF090C94DF090C94DF0901
:100010000C94DF090C94DF090C94DF090C94DF09C0
:100020000C94DF090C94DF090C94DF090C94DF09B0
:100030000C94DF090C94DF090C94DF090C94DF09A0
:100040000C94DF090C941A180C94DF090C94DF0946
:100050000C94DF090C94DF090C94DF090C94E13E49
:100060000C94DF090C948E150C9464150C94DF0924
:100070000C94DF090C94DF090C94DF090C94DF0960
:100080000C94EC170C94DF090C94DF090C94DF0935
:100090000C94DF090C94DF090C94DF090C94F82C04
:1000A0000C94DF090C94DF090C94BE170C94DF0943
:1000B0000C94DF090C94DF090C94DF090C94901761
:1000C0000C94DF090C94DF090C94DF090C94DF0910
:1000D0000C94DF090C94DF090C94DF090C94DF0900
:1000E0000C94DF09F43DF73DE63DEA3DF03D2E3E40
:1000F000FB3DFF3D053E093E0D3E133E173E1B3EB8
:100100002E3E213E253E293E0C94CC330C944829AA
:100110000C94F4330C94A7370C9417140C94AC2C57
:100120000C9436360C9465130C9464130C9432348E
:100130000C94EF340C94213E0C94212C0C94DC3460
:100140000C94FF3D0C94D0130C94093E0C942E3E5D
:100150000C9403350C94253E0C949A190C94F03DA4
:100160000C94FB3D0C94293E0C940D3E0C9472288B
:100170000C94A7290C94F43D0C94EA3D0C94462B66
:100180000C9468130C94312C0C9439130C947D0A44
:100190000C94452C0C94E63D0C948B130C94133E5C
:1001A0000C9477130C94F73D0C94A6340C9499138B
:1001B0000C94222C0C94173E0C947D2C0C94D6336A
:1001C0000C94053E0C9413370C944D2C0C941B3E50
:1001D0000C944F530C946C34000000000700010095
:1001E0000004110803F009000A060B01EF11000DCD
:1001F000100D00F12B000D140D00EF4C0013111524
:1002000001F0750010111101F0970004060601EFCE
:100210009A0006160801EFAB0006160801EFBC00B5
:1002200007080901EFC3000B0B0E02F6D300040709
:100230000601FED70006030801F9DA0004030601EF
:10024000FEDC0006110700F0E9000C110D01F003BF
:100250000107110E03F012010C110D01F02C010C1D
:10026000110D01F046010B110D01F05E010C110D95
:1002700001F078010C110D01F092010B110D01F04C
:10028000AA010C110D01F0C4010C110D01F0DE01E9
:10029000040C0601F5E40104100601F5EC010C0C58
:1002A0000E01F5FE010C090E01F70C020C0C0E01FB
:1002B000F51E020C120F02EF390215151701EF712E
:1002C0000210121100EF95020E121102EFB502108A
:1002D000121101EFD9020F121102EFFB020D1210E1
:1002E00002EF19030C120F02EF340310121201EF88
:1002F00058030E121202EF780304120702EF810373
:100300000B120E01EF9A0310121102EFBE030B1233
:100310000F02EFD70311121502EFFE030F121202A4
:10032000EF200411121301EF47040E121002EF67C1
:100330000411131301EF900410121102EFB4040F13
:10034000121001EFD6040C120F02EFF1040E12127C
:1003500002EF11050F121000EF330517121700EF0F
:1003600067050F121001EF890510120F00EFAD05A0
:100370000D120F01EFCB0506170802EFDD0507117F
:100380000700F0EC0506170800EFFE050C0B0E0148
:10039000F00F060F020DFF04130604030600EF150D
:1003A000060D0D0E01F42B060D120F02EF49060C7F
:1003B0000D0D01F45D060D120F01EF7B060D0D0E04
:1003C00001F4910607120801EFA1060D120F01F4C6
:1003D000BF060C120E02EFDA0604120702EFE30664
:1003E00006170700EFF5060C120E02EF10070412B5
:1003F0000602EF1907130D1502F438070C0D0F0252
:10040000F44C070D0D0F01F462070D120F02F4807A
:10041000070D120F01F49E07080D0902F4AB070C3B
:100420000D0D01F4BF07060F0801F2CB070C0D0FED
:1004300002F4DF070D0D0D00F4F507120D1300F4A3
:1004400013080D0D0D00F429080D120D00F44708D6
:100450000A0D0C01F4580806170901EF6A08021684
:100460000702EF700806170903EF82080C050C005D
:10047000F9FFFFFFFF766660FFF0F3FCFF3FCF61FF
:1004800098600E70738318FFF7FFBFFC7383181812
:10049000C7FFBFFDFFE31839C1CE0E7002007E0F0B
:1004A000F87FE7AFB93DC80F403F00FF00FC05FFF4
:1004B00027F93FEBEFFE3FE07C008004003C060F95
:1004C000C181FC30738C0C3181CE601FCC03F300F2
:1004D0003C678019F8027F80CE7011860639C1878B
:1004E000F8307E0C078007801FC03FE03CE03CE016
:1004F0003EE00FC007003F8C7FCCF1FCF0F8F078B5
:10050000F8F87FFC3FDE1F8EFFFF660C738E71C70D
:1005100038E38E38E38E1C71C38E1870C3871C3885
:10052000E3871C71C71C71CE38E71C638010235F02
:10053000F3871B140E01C038070FFFFFFFF8700E82
:1005400001C03800FFF336C0FFFFC0FFF00C30865B
:1005500018610C30C218618430C01F83FC7FE79E95
:10056000F0FF0FF0FF0FF0FF0FF0FF0FF0F79E7F8F
:10057000E3FC0F00061C7FFFE3C78F1E3C78F1E30E
:10058000C78F1E1F83FC7FEF9FF0FF0F00F00F014E
:10059000E03C0F81E03C03807FF7FF7FF01F07FC0A
:1005A000FFEF1EF1E01E03C07807C01E00F00FF041
:1005B000FF1F7FE7FC1F8003C0F81F07E1BC278CEB
:1005C000F31E63D87BFFFFFFFE0780F01E03C03FD2
:1005D000E7FE7FE7006006F87FCFFEF1F00F00F046
:1005E0000F00FE1EFFE7FC3F000F83FC7FE79FF03C
:1005F0000F78FFCFFEF9FF0FF0FF0FF0F79F7FE3BB
:10060000FC0F80FFFFFFFF80E01C0701E0380F01B7
:10061000C0780F01E0380F01E03C000F03FC7FC7FA
:100620009E70E70E39C1F83FC79EF0FF0FF0FF9FA5
:100630007FE3FC1F801F03FC7FEF9EF0EF0FF0FFB6
:100640000FF9F7FF3FF1EF00EF1E7FE7FC1F00FF00
:10065000F000000FFFFFF000000FFF116C0010070B
:1006600003F1FC7E0F80E00FC03F807F00F003FFAE
:10067000FFFFFFF000000000FFFFFFFFF0000E0093
:10068000FC07F00FE01F00F07F1F8FE0F008001F55
:1006900007FC7FEF9FF0FF0F00F00F01E03C0780A9
:1006A000F00E00E00000F00F00F000FE001FFC0361
:1006B000C0F03801C38007183D9987EC6C71C3C343
:1006C000061E1830F181878C187C60C3638E3B8FC7
:1006D000DF8C3CF0700001C0000780801FFE001F0F
:1006E000C00003E003E003E007F007F007700F78B5
:1006F0000E780E381E3C1C3C3FFC3FFE3FFE780E41
:10070000780F700FF007FFC3FFCFFF3C3EF07BC1B7
:10071000EF0FBFFCFFE3FFCF07BC0FF03FC0FF07A9
:10072000FFFEFFFBFF8007E01FF83FFC7C3E781FC9
:10073000F80FF000F000F000F000F000F000F80F0B
:10074000781F7C3E3FFE1FFC07F0FFE1FFE3FFE761
:1007500083EF03DE07FC07F80FF01FE03FC07F8048
:10076000FF03FE07BC1F7FFCFFF1FF80FFF7FFBF09
:10077000FDE00F007803C01FFCFFE7FF3C01E00F26
:10078000007803C01FFFFFFFFFC0FFFFFFFFFF0058
:10079000F00F00F00FFEFFEFFEF00F00F00F00F083
:1007A0000F00F00F0003F00FFC3FFE3E1F780778AC
:1007B00000F000F000F07FF07FF07FF00778077C1A
:1007C0000F3E1F3FFB0FFB03E3F03FC0FF03FC0F97
:1007D000F03FC0FF03FFFFFFFFFFFF03FC0FF03FF1
:1007E000C0FF03FC0FF03FC0F0FFFFFFFFFFFFFF64
:1007F000FFFF01E03C0780F01E03C0780F01E03CE2
:1008000007F8FF1FE3FC7BFE7FC3E0F03EF03CF007
:1008100078F0F0F1E0F3C0F780FF00FF80FF80FB8D
:10082000C0F1E0F0F0F0F0F078F03CF03EF01EF0B7
:100830001E03C0780F01E03C0780F01E03C0780F54
:1008400001E03C07FFFFFFFCF81FFE0FFF0FFF87D3
:10085000FFC3FFE1FFF9FFFCEFFE77FB3BFDDDFE91
:10086000FCFF7E7F9F3FCF9FE78FF3C7F8E3C0F089
:100870001FF03FF07FE0FFE1FFC3FDC7FB8FF39F59
:10088000E73FC77F8FFF0FFE1FFC1FF81FF03FE001
:100890003C03E00FFC0FFF87C7C780F3C07BC01F7E
:1008A000E00FF007F803FC01FE00F780F3C078F0DA
:1008B000F87FFC1FFC03F800FFE3FFEFFFBC1FF015
:1008C0003FC0FF03FC1FFFFBFFCFFE3C00F003C057
:1008D0000F003C00F003C00003E00FFC0FFF87C7D0
:1008E000C780F3C07BC01FE00FF007F803FC01FED8
:1008F00004F787F3C3F8F0F87FFC1FFF83F1800053
:1009000000FFF8FFFCFFFCF03EF01EF01EF01EF0B2
:100910003CFFF8FFF0FFF8F03CF03CF03CF03CF01E
:100920003CF03CF01F0FC07FE1FFE7C3EF03DE00A8
:100930003C007F007FF03FF80FF801F001FE03DE7E
:100940000FBFFE3FF81FC0FFFFFFFFF0F00F00F0EA
:100950000F00F00F00F00F00F00F00F00F00F00F8D
:1009600000F0F03FC0FF03FC0FF03FC0FF03FC0F9F
:10097000F03FC0FF03FC0FF03FC0F7879FFE3FF042
:100980003F00700EF03DE079C0E381C787870E0E0F
:100990001C1E781CE039C073807E00FC01F801E069
:1009A00003C0078070381CE0F079E1F0F3C3E1E3A5
:1009B00087C3870F870E3B9E1E77381CEE7039CC9D
:1009C000E07399C06E3F00FC7E01F8FC03F0F80371
:1009D000E1E00783C00F0780F03CF0F9E1E1E78335
:1009E000CF03FC03F007E007800F003F00FF01FE8C
:1009F000079E0F1E3C3CF83DE078F01E781E783CC8
:100A00003C3C3C781E780E700FF007E007E003C016
:100A100003C003C003C003C003C003C003C0FFFF83
:100A2000FFFFFE01F00F00F00F00F807807807804D
:100A30007C03C03C03C01FFFFFFFFFC0FFFFFCF3B0
:100A4000CF3CF3CF3CF3CF3CF3CF3CFFFFC0C181A1
:100A50000306040C1810306040C1810306FFFFCF6D
:100A60003CF3CF3CF3CF3CF3CF3CF3CFFFFFC00FC1
:100A700000F00F01F81B839C39C30C70E70EE07087
:100A8000FFFFFFFCE6301F83FF1FFDE1E00F03F9CE
:100A9000FFDF1EF0F78FBFFCFFE3CF80F007803C45
:100AA00001E00F007BC3FF9FFEF8F783FC1FE0FF10
:100AB00007F83FE3DFFEFFE7BE000F83FE7FF78FFF
:100AC000F07F00F00F00F0778F7FF3FE0F8000784B
:100AD00003C01E00F0078FBCFFEFFF78FF83FC1FF1
:100AE000E0FF07F83DE3EFFF3FF8FBC01F81FE1F6B
:100AF000F9F1CF077FFBFFDE00F003C39FFC7FC04F
:100B0000F8003EFDFBC79FBF3C78F1E3C78F1E3C5A
:100B100078F01E79FBDFFEF1FF07F83FC1FE0FF012
:100B20007FC7DFFE7FF1F7803C01FF1E7FF0FE00F4
:100B3000F00F00F00F00F00F7CFFEFFFF9FF0FF058
:100B4000FF0FF0FF0FF0FF0FF0FF0FFFF00FFFFFA1
:100B5000FFFFFFFF3CF3C000F3CF3CF3CF3CF3CFEC
:100B60003CF3CFFFFF80F00F00F00F00F00F0FF10C
:100B7000EF3CF78FF0FF0FF8FF8F3CF1CF1EF0EF47
:100B80000FFFFFFFFFFFFFFFFFFFF78F9FFBFBFF45
:100B9000FFFCF8FF1E1FE3C3FC787F8F0FF1E1FE1F
:100BA0003C3FC787F8F0FF1E1EF7CFFEFFFF9FF008
:100BB000FF0FF0FF0FF0FF0FF0FF0FF0F00F81FFBE
:100BC0001FFCF1EF07F83FC1FE0FF07BC79FFC7FD2
:100BD000C0F800F7C7FF3FFDF1EF07F83FC1FE0F78
:100BE000F07FC7BFFDFFCF787803C01E00F00780FD
:100BF000000F79FFDFFEF1FF07F83FC1FE0FF07B2A
:100C0000C7DFFE7FF1F7803C01E00F007803C0F3FF
:100C1000F7FFF8F0F0F0F0F0F0F0F0F01F87FCFFD5
:100C2000EF0FF80FF07FE0FF01FF0FFFE7FE1F80DF
:100C300079E7BFFDE79E79E79E7DF3C0F0FF0FF0F7
:100C4000FF0FF0FF0FF0FF0FF0FF1FFFF7FF3EF069
:100C5000F07B839E1CF1E38E1C707783B81DC07EF1
:100C600003E01F007000F0E1DC78771F3DE7CF79EB
:100C7000B38E6CE3BB38EEFC1F3F07C7C1F1F07CBD
:100C8000780E1E0078F3C78F783B81FC07C01E01E9
:100C9000F01FC0EF0F78F1E78700F07B839E1C7197
:100CA000E38E1E707383B81FC07E03E00F007003D5
:100CB000803C07C03E01E000FFFFFFFC0F0783C13F
:100CC000E0F0783C0FFFFFFFC01CF3CE38E38E3816
:100CD000E3BCF0E38E38E38E3CF1C0FFFFFFFFFF83
:100CE000F0E38F1C71C71C71C70F3DC71C71C71C77
:100CF000F3CE00780FE0CF307F01E07104D80120FF
:100D00007E1D4661696C656420746F20626F6F742C
:100D100020564C35334C305800005EBCE2613FDD5C
:100D200083C29C7E20A3FD1F41009D23BE46DB6540
:100D3000F88C11AF32CA57E9740000220025002850
:100D4000002B002E003100340002010000050108D4
:100D5000010B01000020002300260029002C002F99
:100D6000003200000100000301060109010505052C
:100D700005070508080808020202020A0A08080412
:100D80000404040101010101010101030303030340
:100D9000030303040707070C0C0C0C0C0C0C0C02CF
:100DA00002020206060606060606060B0B0B0B0BD6
:100DB0000B0B0B01021020200808102040102040CF
:100DC000800201020108040201010204081020400F
:100DD000808040201008040201800402018040202D
:100DE0001008040201080402010102040810204056
:100DF00080010204081020408000000A0B02090C48
:100E00000D0E0807030401000000000000000000B0
:100E100000000000000000000000000000000000D2
:100E2000000000000012111000000000000000008F
:100E300000000000000000000000000000000000B2
:100E4000000000003E5B4F5B3E3E6B4F6B3E1C3E26
:100E50007C3E1C183C7E3C181C577D571C1C5E7F3A
:100E60005E1C00183C1800FFE7C3E7FF00182418B9
:100E700000FFE7DBE7FF30483A060E2629792926EE
:100E8000407F050507407F05253F5A3CE73C5A7FD8
:100E90003E1C1C08081C1C3E7F14227F22145F5F2E
:100EA000005F5F06097F017F006689956A60606068
:100EB000606094A2FFA29408047E040810207E20A3
:100EC0001008082A1C08081C2A08081E10101010F8
:100ED0000C1E0C1E0C30383E3830060E3E0E06003E
:100EE0000000000000005F00000007000700147F02
:100EF000147F14242A7F2A12231308646236495669
:100F000020500008070300001C2241000041221C61
:100F1000002A1C7F1C2A08083E0808008070300048
:100F20000808080808000060600020100804023E5D
:100F30005149453E00427F4000724949494621419E
:100F4000494D331814127F1027454545393C4A490D
:100F5000493141211109073649494936464949294C
:100F60001E0000140000004034000000081422415C
:100F70001414141414004122140802015909063EE5
:100F8000415D594E7C1211127C7F494949363E41E0
:100F90004141227F4141413E7F494949417F090901
:100FA00009013E414151737F0808087F00417F419C
:100FB000002040413F017F081422417F40404040D3
:100FC0007F021C027F7F0408107F3E4141413E7F2B
:100FD000090909063E4151215E7F09192946264922
:100FE00049493203017F01033F4040403F1F2040F9
:100FF000201F3F4038403F63140814630304780403
:10100000036159494D43007F4141410204081020CA
:10101000004141417F040201020440404040400041
:101020000307080020545478407F2844443838444B
:10103000444428384444287F385454541800087EC7
:10104000090218A4A49C787F0804047800447D4019
:10105000002040403D007F1028440000417F4000B8
:101060007C047804787C080404783844444438FCD0
:101070001824241818242418FC7C08040408485454
:1010800054542404043F44243C4040207C1C204011
:10109000201C3C4030403C44281028444C90909008
:1010A0007C4464544C440008364100000077000042
:1010B000004136080002010204023C2623263C1EA1
:1010C000A1A161123A4040207A3854545559215513
:1010D0005579412254547842215554784020545532
:1010E00079400C1E52721239555555593954545481
:1010F0005939555454580000457C410002457D4201
:101100000001457C407D1211127DF0282528F07CDD
:10111000545545002054547C547C0A097F49324977
:101120004949323A4444443A324A4848303A4141C3
:10113000217A3A42402078009DA0A07D3D42424263
:101140003D3D4040403D3C24FF2424487E494366C9
:101150002B2FFC2F2BFF0929F620C0887E090320A6
:10116000545479410000447D413048484A32384067
:1011700040227A007A0A0A727D0D19317D262929CA
:101180002F28262929292630484D402038080808CC
:101190000808080808382F10C8ACBA2F102834FAED
:1011A00000007B000008142A142222142A14085577
:1011B00000550055AA55AA55AAFF55FF55FF000036
:1011C00000FF00101010FF00141414FF001010FF97
:1011D00000FF1010F010F0141414FC001414F700A9
:1011E000FF0000FF00FF1414F404FC141417101F78
:1011F00010101F101F1414141F00101010F0000006
:1012000000001F101010101F10101010F010000020
:1012100000FF101010101010101010FF1000000030
:10122000FF140000FF00FF00001F10170000FC0467
:10123000F414141710171414F404F40000FF00F74A
:1012400014141414141414F700F7141414171410AD
:10125000101F101F141414F4141010F010F00000DC
:101260001F101F0000001F14000000FC140000F0FD
:1012700010F01010FF10FF141414FF141010101FA2
:1012800000000000F010FFFFFFFFFFF0F0F0F0F0B3
:10129000FFFFFF0000000000FFFF0F0F0F0F0F38D0
:1012A00044443844FC4A4A4A347E02020606027E1E
:1012B000027E0263554941633844443C04407E2029
:1012C0001E2006027E020299A5E7A5991C2A492A3A
:1012D0001C4C7201724C304A4D4D303048784830C9
:1012E000BC625A463D3E494949007E0101017E2AC1
:1012F0002A2A2A2A44445F444440514A44404044F4
:101300004A51400000FF0103E080FF000008086B25
:101310006B083612362436060F090F06000018181F
:101320000000001010003040FF0101001F01011EED
:1013300000191D1712003C3C3C3C0000000000005E
:10134000002100240027002A002D00300033000176
:10135000010000040107010A01004F5311241FBEC0
:10136000CFEFD1E2DEBFCDBF00E00CBF14E0A0E0C4
:10137000B2E0E4E4F5EB00E00BBF02C007900D9291
:10138000A037B107D9F72EE0A0E7B4E001C01D9265
:10139000A738B207E1F719E0CEEAD9E000E006C0CD
:1013A00021970109802FFE010E94DE55CD3AD10719
:1013B00080E00807A9F70E942B3F0C94A05A0C94D8
:1013C0000000CF93DF93EC01462F416060E00E9464
:1013D0005731811111C0CE010E94C03B81110CC058
:1013E000CE010E94E71E811107C040E060E0CE01FF
:1013F000DF91CF910C945731DF91CF910895EF9207
:10140000FF920F931F93CF93DF931F921F92CDB73D
:10141000DEB78C017A0162307105A1F138F46115F3
:10142000710559F06130710571F056C06330710576
:1014300079F16630710598F14FC0FC0181A992A93C
:10144000A3A9B4A94BC0AE014F5F5F4F64E40E94F3
:10145000B130811149C0998120E030E0392F330F3C
:10146000A90160E070E0232B51F5F80145A956A9C8
:1014700067A970ADF7014083518362837383F801DC
:1014800016A232C0FC0181AD92ADA3ADB4AD26C0B1
:10149000FC01FD9680819181A281B3811FC0AE01C4
:1014A0004F5F5F4F64E60E94B13081111DC02981FA
:1014B00080E090E0922F990FA0E0B0E00FC0F7011C
:1014C0004083518362837383F80145AB56AB67ABAE
:1014D00070AF91E096A308C08CEF06C0F70180833F
:1014E0009183A283B38380E00F900F90DF91CF911F
:1014F0001F910F91FF90EF900895682F8EEA9AE068
:101500000E94D01380E090E008956F927F929F92A6
:10151000AF92BF92CF92DF92EF92FF920F931F9301
:10152000CF93DF931F92CDB7DEB77C013B015A0109
:10153000922E6C0183EEC81A8EEFD80AF601108144
:10154000198241E061E0C7010E945731811113C047
:1015500060E4C7010E94E10981110DC0F1E09F1212
:101560000AC000E021E0AE014F5F5F4FB301C70149
:101570000E948D1E02C0F3011082811127C042E03B
:1015800061E0C7010E945731811113C060E0C701BB
:101590000E94E10981110DC0F1E09F120AC001E033
:1015A00020E0A501BE016F5F7F4FC7010E948D1E25
:1015B00002C0F5011082811109C0412F61E0C7010D
:1015C0000E945731811102C0F60110830F90DF9104
:1015D000CF911F910F91FF90EF90DF90CF90BF9030
:1015E000AF909F907F906F9008950F931F93AB01E2
:1015F000FC01EF5BFE4F06E010E020E030E060EB26
:1016000080810E942830892B11F08CEE01C080E08F
:101610001F910F9108952F923F924F925F926F9278
:101620007F928F929F92AF92BF92CF92DF92EF9272
:10163000FF920F931F93CF93DF93CDB7DEB7EB9756
:101640000FB6F894DEBF0FBECDBF7C016B01DC018D
:1016500050961C9241E060E80E94573141E06FEFE4
:10166000C7010E94573140E060E0C7010E94573136
:10167000F701E95DFE4F408161E9C7010E945731E2
:1016800041E060E0C7010E94573140E06FEFC701C1
:101690000E94573140E060E8C7010E94573141E0A5
:1016A00060E0C7010E94573191E09983811123C006
:1016B000812C912C5401BFEF8B1A9B0AAB0ABB0AF9
:1016C000998190FF10C0811132C0E8EC8E16910410
:1016D000A104B10471F0AE014F5F5F4F60E0C7013C
:1016E0000E94E030E8CFF8EC8F169104A104B10419
:1016F00011F489EF94C2811192C2C7010E94C03BCC
:1017000081118DC283E0F701E15EFE4F80830CE022
:1017100010E020E030E0AE01465E5F4F64E1B2963B
:1017200080810E94982F892B51F08CEE78C2B8EC02
:101730008B169104A104B10409F071C2DACFF6014D
:10174000168AD60110821182128213822CA130E0F7
:10175000322F22278DA1280F311D14821582168267
:101760001782E9A1F0E0CF01982F8827990F99AB54
:1017700088AB4C01A12CB12C1C968D929D92AD9200
:10178000BC921F978BA190E0982F8827990FA0E01B
:10179000B0E0F601808B918BA28BB38B2C8C312C1B
:1017A000322C22248D8D280E311C358A248A0A8DF4
:1017B000D701A75CBE4F4D915C9111975B971C912F
:1017C000483EF3E05F07F1F1249FC001259F900D93
:1017D000349F900D11248C509E4F68EE73E00E9450
:1017E000B6559B01D7015D968D919D910D90BC9151
:1017F000A02D8CAB9DABAEABBFABF701428D4423AC
:1018000009F1289E2001299E500C389E500C11246D
:10181000452C5524612C712C84149504A604B7041E
:1018200029F4111112C020EE3AE822C0A8A9B9A9E2
:101830000E948B55A50194012419350946095709C1
:101840000E9469551123A1F002C028EB32E2C901C0
:101850009695879596958795D60119969C938E9324
:1018600018972295220F220F207C57962C9304C0A4
:10187000F60131872087178A1FA61EA6087710E079
:10188000A3E015950795AA95E1F70BAF0115110592
:1018900061F0802F8D7F853059F0F1E0F8AF84EF53
:1018A000800F843038F018AE05C021E028AF02C0A8
:1018B00031E038AF41E06FEFC7010E94573181112D
:1018C00007C0AE01425D5F4F66EBC7010E94B130B9
:1018D0009EA5412C512C592E550C612C712C811137
:1018E00005C040E06FEFC7010E945731F701EE5C81
:1018F000FE4F408251826282738281117FC1D70183
:101900009596BC91BAAFBB2309F47DC0D6011C9655
:101910008D919D910D90BC91A02D88AB99ABAAABF8
:10192000BBABF701828D8823A9F0F601A489B589A4
:10193000F701258D368D478D50A10E945E55DC0143
:10194000CB0180589F4FAF4FBF4F892F9A2FAB2F9E
:10195000BB2703C080E090E0DC0128A939A94AA98F
:101960005BA9280F391F4A1F5B1FA8EEB3E00E9436
:101970005E55DC01CB019058AF4FBF4FCD01AA2778
:10198000BB27F701E65DFE4F892B8A2B8B2B69F471
:101990008EEA97E8AFE8B2E080839183A283B383B5
:1019A0008CAB9DABAEABBFAB08C010821182128274
:1019B00013821CAA1DAA1EAA1FAAD6011B961C923E
:1019C0001E921A97AE01465D5F4F60E070E0C7015E
:1019D0000E94FF09282F4AA55BA56CA57DA541158E
:1019E00051056105710559F0B1E0B8AB8CA99DA90D
:1019F000AEA9BFA9481759076A077B0708F018AABC
:101A0000222311F0FDC018AAD7019796BC91B9AF57
:101A1000BB23E1F0AE014A5D5F4F62E070E0C701B9
:101A20000E94FF094EA15FA168A579A54115510546
:101A30006105710539F0E1E0ECAB4415550566052B
:101A4000770508F01CAA882311F0DCC01CAAD70176
:101A500098967C90772069F12114310461F09A2DD9
:101A6000892D782D6627910140E050E00E9469554C
:101A700049015A0103C0812C912C5401AE014F5FE2
:101A80005F4F63E070E0C7010E94FF0949815A81FE
:101A90006B817C81411551056105710531F091E043
:101AA00084169506A606B70608F090E0882311F084
:101AB00026C090E0B8AD8FEFB13039F1800F8330A0
:101AC00008F4A3C0EBADE63009F4A1C0E93009F495
:101AD0009EC0802F8D7F883009F49BC0FCA9F13017
:101AE00009F497C0E43009F496C0913009F493C02A
:101AF00028A9213009F491C018AA90E01CAAD601A7
:101B00001B961C921E921A9780E0F70136A1FAAD3F
:101B100021E0FF2321F048A9413009F020E0D7015E
:101B20009B962C9321E00430110511F0311120E037
:101B3000F70124A7F9AD21E0FF2321F03CA93130C2
:101B400009F020E0D7019D962C9321E0772019F031
:101B5000913009F020E0F70126A7D60158968C9322
:101B60001701BAE42B0E311C99E1F101DE01119647
:101B700001900D929A95E1F7D6011896ED91FC919E
:101B8000199757969C9157971A966D917C911B9730
:101B90001C964D905D906D907C901F9750968D9007
:101BA0009D90AD90BC90539754964D915C915597F4
:101BB00014960D911D912D913C9117970D831E83C5
:101BC0002F833887FA87E9877C876B874D865E8607
:101BD0006F86788A898A9A8AAB8ABC8A5E8B4D8B9B
:101BE000988F898F89E1FE013196D10101900D9284
:101BF0008A95E1F7C7010E94E71E11C018AA1AAE24
:101C00001CAA19AE712C90E07ACF85E07ECF84E0DB
:101C10007CCF83E07ACF82E078CF81E076CFEB96FD
:101C20000FB6F894DEBF0FBECDBFDF91CF911F91ED
:101C30000F91FF90EF90DF90CF90BF90AF909F906B
:101C40008F907F906F905F904F903F902F9008956E
:101C5000AF92BF92DF92EF92FF920F931F93CF93B9
:101C6000DF93CDB7DEB769970FB6F894DEBF0FBE2E
:101C7000CDBF8C015B017C0183EEE81A8EEFF80A80
:101C8000F701D08040EC61E0C8010E94573181111A
:101C900026C0BE016F5F7F4FC8010E940B0B8111F0
:101CA0001EC041E06FEFC8010E945731811117C07B
:101CB000A50166EBC8010E94B130811110C040E05F
:101CC0006FEFC8010E945731811109C04D2D61E0AD
:101CD000C8010E945731811102C0F701D082699674
:101CE0000FB6F894DEBF0FBECDBFDF91CF911F912D
:101CF0000F91FF90EF90DF90BF90AF9008952F92DB
:101D00003F924F925F926F927F928F929F92AF928B
:101D1000BF92CF92DF92EF92FF920F931F93CF93D8
:101D2000DF93CDB7DEB7AB970FB6F894DEBF0FBE2B
:101D3000CDBF1C017EA36DA358A74FA31B861C8695
:101D40001D861E861F82188619861A861A8A198A87
:101D5000FC01E85DFE4F20813181388F2F8BAC0173
:101D60004F5E5E4F5A8F498FDA011C922C01BEEEF6
:101D70004B1ABEEF5B0AF20110823C01FDEE6F1AB6
:101D8000FEEF7F0AD3011C92FC01EC5EFE4F108235
:101D9000319610823196108241E06FEF0E945731E8
:101DA0008111FCC140E06FE4C1010E9457318111F3
:101DB000F5C14CE26EE4C1010E9457318111EEC1C0
:101DC00040E06FEFC1010E9457318111E7C144EB40
:101DD00066EBC1010E9457318111E0C140E060E82B
:101DE000C1010E9457318111D9C120E0AE014F5E7F
:101DF0005F4FBE016E5E7F4FC1010E94850A811157
:101E0000CDC11B861C861D861E86F101E95EFE4F34
:101E1000FC8FEB8F9E01255F3F4F4901A3E0AA2E67
:101E2000B12CC12CD12CE12CF12C8701298D3A8DBC
:101E3000AF0160E0C1010E94C91F8111AFC14B8594
:101E40005C856D857E854B8B5C8B6D8B7E8BBE013F
:101E5000615F7F4FC1010E94280E81119FC18F8554
:101E600098896F89788D6817790708F077C0A98DF0
:101E7000BA8D1C92F2011082D3011C92329610820C
:101E800031961082319610828B899C89AD89BE89EA
:101E90008C549F4FAF4FBF4FE6E0B695A7959795EF
:101EA0008795EA95D1F7880F991F880F991FFC0134
:101EB000EB5CFC4F80819181A281B381892B8A2BBD
:101EC0008B2BA9F1BE01655F7F4F4B0173E0A72EFD
:101ED000B12CC12CD12CEB88FC880D891E89298D51
:101EE0003A8D4B8D5C8D61E0C1010E94C91F81114B
:101EF00055C14B855C856D857E854B8B5C8B6D8B71
:101F00007E8BBE01615F7F4FC1010E94280E81114F
:101F100045C18F8598896F89788D6817790730F565
:101F200011E063E0462E512C612C712C23C04B89AB
:101F30005C896D897E894C3251056105710508F017
:101F4000C1CF4B895C896D897E894F5F5F4F6F4F31
:101F50007F4F4B8B5C8B6D8B7E8B96CF10E0412C33
:101F6000512C3201C12CD12C760108C010E0412C3B
:101F7000512C3201C12CD12C7601C3948F859889C4
:101F80006F89788D8617970708F0EEC01C2D46E004
:101F9000E98DFA8D9E012F5F3F4FD90101900D927F
:101FA0004A95E1F7AF89B88D8A1B9B0BAC0160E0C5
:101FB00070E049A35AA36BA37CA353E0452E512C98
:101FC000612C712CB1016F5E7E4F7AA769A72BA798
:101FD000032F9E01295F3F4F4B895C896D897E8964
:101FE0008B8D9C8D0E94441F8F809884A984BA8415
:101FF0007FEF87169706A706B70609F4CEC0A301A0
:1020000092012F5F3F4F4F4F5F4F2D8F3E8F4F8F6E
:1020100058A3D501C4018C549F4FAF4FBF4F36E03A
:10202000B695A795979587953A95D1F7880F991FFB
:10203000880F991FFC01EB5CFC4F81E090E0A0E071
:10204000B0E04081518162817381452B462B472B43
:1020500019F480E090E0DC018C159D05AE05BF050C
:1020600009F09BC0D501C40123E0B695A7959795CB
:1020700087952A95D1F7B501A401477055276627A2
:10208000772786309105A105B10508F086C0E98D56
:10209000FA8DE80FF91F21E030E001C0220F4A95C8
:1020A000EAF73081232B2083698D7A8DC1010E944C
:1020B000F50A811173C0BE01615F7F4FC1010E94AB
:1020C000280E81116BC08F8598894F89588D841790
:1020D000950731F0AC016F89788D461B570B02C014
:1020E00040E050E060E070E0AF89B88DA817B90714
:1020F000E0F489A19AA1ABA1BCA184179507A6071A
:10210000B70770F5BE016F5F7F4FC1010E94F50AEE
:1021100096E0FE013196D101AF5EBE4F01900D9267
:102120009A95E1F7882301F139C0D501C4010196E0
:10213000A11DB11D8B8B9C8BAD8BBE8BE9A5FAA528
:10214000ABA5B02F86E001900D928A95E1F74D8CFA
:102150005E8C6F8C78A049A35AA36BA37CA339CF64
:102160004D8C5E8C6F8C78A0ADA1BEA14D925D921E
:102170006D927C921397EFA1F8A51083F101EC5FAB
:10218000FE4F81E0808332978C918083AFA1B8A508
:102190008C913196808380E001C08EECAB960FB6B7
:1021A000F894DEBF0FBECDBFDF91CF911F910F918D
:1021B000FF90EF90DF90CF90BF90AF909F908F9067
:1021C0007F906F905F904F903F902F9008953F9237
:1021D0004F925F926F927F928F929F92AF92BF9237
:1021E000CF92DF92EF92FF920F931F93CF93DF93E3
:1021F00000D01F92CDB7DEB78A01AE014F5F5F4FAF
:102200000E944C3C382E811136C049805A806B8028
:102210007C8088EE882E83E0982EA12CB12CC301FF
:10222000B201A50194010E94695569017A01A8EEE5
:10223000B3E00E945E55A3019201261B370B480BA9
:10224000590BAFEFBFEF0E945E556C507E4F8F4F22
:102250009F4FA50194010E9469557601DD24CC248D
:10226000DA01C9018C0D9D1DAE1DBF1DF8018083D3
:102270009183A283B383832D0F900F900F900F90C3
:10228000DF91CF911F910F91FF90EF90DF90CF9052
:10229000BF90AF909F908F907F906F905F904F9086
:1022A0003F9008950F931F93CF93DF931F92CDB765
:1022B000DEB78B011982AE014F5F5F4F61E00E9474
:1022C000E030811116C0998194FB222720F9F80192
:1022D000208393FB222720F9228392FB222720F9D7
:1022E000218396FB222720F92383991F9927991F81
:1022F00094830F90DF91CF911F910F9108955F927A
:102300006F927F928F929F92AF92BF92CF92DF9205
:10231000EF92FF920F931F93CF93DF93CDB7DEB76A
:1023200061970FB6F894DEBF0FBECDBF7C018B0165
:10233000FC018089FB018083AE014A5F5F4F68EF3B
:10234000C7010E94B130582E811127C0AE014F5FE6
:102350005F4F64E0C7010E946E30582E81111DC08E
:102360002E813F812115310569F040E050E06981FF
:102370007A818B819C810E946955F801268337837D
:1023800040875187F80186819781A085B185F70143
:10239000868B978BA08FB18F02C0511053C1F8016B
:1023A0001286AE014F5F5F4F60E2C7010E94B130FD
:1023B000582E811147C189819A81009769F4F701EC
:1023C000858D968DA78DB0A1F80185879687A78703
:1023D000B08BF701128E13C033E0880F991F3A9526
:1023E000E1F7A0E0B0E0F80185879687A787B08B7A
:1023F000F701858F968FA78FB0A381E0828FAE0102
:102400004F5F5F4F68E2C7010E94B130582E8111C3
:1024100019C189819A819F708115F8E09F0708F0A2
:1024200090514AEF489F9001499F300D1124C901F6
:10243000330FAA0BBB0BF801818B928BA38BB48B50
:102440005801F1E2AF0EB11C370125E2620E711C9A
:10245000480185E1880E911CC12CD12CA501B60143
:10246000C7010E94FF09582E8111ECC0F301819130
:102470003F01F40181934F01FFEFCF1ADF0A24E0FF
:10248000A20EB11C86E0C816D10441F7AE014F5F21
:102490005F4F61E0C7010E94E030582E8111D2C029
:1024A0008981F701E35EFE4F808387FF04C081E0EE
:1024B000F80181AF02C0F80111AEF80181ADF7015A
:1024C000E75BFF4F808380ED97E0A0E0B0E08A8774
:1024D0009B87AC87BD871E821F821886198686E37C
:1024E0009BE0A0E0B0E0F80182839383A483B583EE
:1024F000BE016F5F7F4FC7010E945211582E81119C
:10250000A1C08981811107C08A81811104C08B819A
:10251000882309F449C0AE01465F5F4F62E0C701FE
:102520000E944C3C81118DC089818823A9F08A8545
:102530009B85AC85BD85825B9D4FAF4FBF4FF8013A
:102540004281538164817581840F951FA61FB71F37
:1025500082839383A483B5838B81882369F08A85E2
:102560009B85AC85BD858E549D4FAF4FBF4F880F67
:10257000991FAA1FBB1F0BC08A818823A9F08A85D7
:102580009B85AC85BD858C569D4FAF4FBF4FF801E5
:102590004281538164817581840F951FA61FB71FE7
:1025A00082839383A483B5838C818823F1F0AE0169
:1025B0004A5F5F4F63E0C7010E944C3C4E815F81E0
:1025C000688579854C565D4F6F4F7F4FF80182804B
:1025D0009380A480B580480D591D6A1D7B1D4283E0
:1025E00053836483758381112CC08D8181110BC04D
:1025F000F80182819381A481B581F701828B938B4D
:10260000A48BB58B1FC0AE01425F5F4F64E0C70172
:102610000E944C3C4E855F85688979894A5D5D4F93
:102620006F4F7F4FF80182809380A480B580480D62
:10263000591D6A1D7B1D42835383648375838823E0
:10264000B9F2582E852D61960FB6F894DEBF0FBEF5
:10265000CDBFDF91CF911F910F91FF90EF90DF9051
:10266000CF90BF90AF909F908F907F906F905F9032
:102670000895CF92DF92EF92FF920F931F93CF9323
:10268000DF936C017A018B01C0E0D0E0CE15DF054D
:1026900089F0D8016D918D01D601ED91FC910190E9
:1026A000F081E02DC6011995892B11F47E0102C03D
:1026B0002196ECCFC701DF91CF911F910F91FF9031
:1026C000EF90DF90CF900895089580E090E0089516
:1026D000FC01538D448D252F30E0842F90E0821B28
:1026E000930B541710F0CF96089501970895FC01AD
:1026F000918D828D981761F0828DDF01A80FB11D39
:102700005D968C91928D9F5F9F73928F90E008955C
:102710008FEF9FEF0895FC01918D828D981731F016
:10272000828DE80FF11D858D90E008958FEF9FEF6A
:102730000895FC01918D228D892F90E0805C9F4F40
:10274000821B91098F73992708958EEA9AE00E945F
:10275000991321E0892B09F420E0822F0895FC01D0
:10276000848DDF01A80FB11DA35ABF4F2C91848D1A
:1027700090E001968F739927848FA689B7892C934F
:10278000A089B1898C9180648C93938D848D9813EA
:1027900006C00288F389E02D80818F7D80830895B3
:1027A000EF92FF920F931F93CF93DF93EC0181E0A1
:1027B000888F9B8D8C8D981305C0E889F98980815D
:1027C00085FD24C0F62E0B8D10E00F5F1F4F0F7399
:1027D0001127E02E8C8DE8120CC00FB607FCFACF43
:1027E000E889F989808185FFF5CFCE010E94AF137A
:1027F000F1CF8B8DFE01E80FF11DE35AFF4FF08200
:102800000B8FEA89FB898081806207C0EE89FF898E
:102810006083E889F98980818064808381E090E029
:10282000DF91CF911F910F91FF90EF900895CF937B
:10283000DF93EC01888D8823C9F0EA89FB898081C8
:1028400085FD05C0A889B9898C9186FD0FC00FB69A
:1028500007FCF5CF808185FFF2CFA889B9898C91DB
:1028600085FFEDCFCE010E94AF13E7CFDF91CF916F
:10287000089580E090E0892B21F00E94A51381113A
:1028800025C080E090E0892B41F080E090E0892B2A
:1028900021F00E94000081111CC080E090E0892B93
:1028A00041F080E090E0892B21F00E94000081112E
:1028B00013C080E090E0892BA1F080E090E0892BAC
:1028C00081F00E94000081110AC008950E9400005A
:1028D000D8CF0E940000E1CF0E940000EACF0C9404
:1028E000000008950E949357CF92DF92EF92FF92DB
:1028F0000F931F93CF93DF936C018B017A01EC014F
:10290000CD51D64F888187FF04C0FB011182108210
:1029100024C08CE08C9D90018D9D300D1124888108
:10292000A901480F511D87FD5A958091300C90E008
:102930004817590794F48881A901480F511D87FD54
:102940005A95CA01FA01EE0FFF1F8E0F9F1FFC015F
:10295000E056F44F808186FD19C088818F5F88839F
:102960008CE08C9D90018D9D300D11248881A901F2
:10297000480F511D87FD5A958091300C90E0481703
:102980005907BCF488818C3044F113C08881280F2A
:10299000311D87FD3A95F901EE0FFF1F2E0F3F1FE6
:1029A000F901E056F44F808160E08F730E942F3E62
:1029B000D4CFF80180819181049680349C4918F429
:1029C00080E49CE904C0F801808191810496F701BC
:1029D000918380838FEF888345C0F80140815181C6
:1029E0008881B901680F711D87FD7A95CB01FB01C4
:1029F000EE0FFF1F8E0F9F1FFC01E056F44F8181E9
:102A00009281840F951FF701918380838881A901AA
:102A1000480F511D87FD5A95CA01FA01EE0FFF1F9D
:102A20008E0F9F1FFC01E056F44F808186FF1AC075
:102A30008881280F311D87FD3A95F901EE0FFF1FA0
:102A40002E0F3F1FF901E056F44F808161E08F7334
:102A5000DF91CF911F910F91FF90EF90DF90CF907A
:102A60000C942F3EDF91CF911F910F91FF90EF902B
:102A7000DF90CF9008956115710579F0FB01019009
:102A80000020E9F73197AF01461B570BDC01ED91B0
:102A9000FC910280F381E02D199480E090E008958C
:102AA0000F931F93CF93DF93EC010E943B158C0192
:102AB0006CEE73E0CE010E943B15800F911FDF91F9
:102AC000CF911F910F9108951F920F920FB60F9201
:102AD00011240BB60F922F933F934F935F936F93F5
:102AE0007F938F939F93AF93BF93EF93FF938EEA60
:102AF0009AE00E94AF13FF91EF91BF91AF919F9128
:102B00008F917F916F915F914F913F912F910F9096
:102B10000BBE0F900FBE0F901F9018951F920F9233
:102B20000FB60F9211240BB60F922F938F939F9392
:102B3000EF93FF93E091BE0AF091BF0A8081E0918C
:102B4000C40AF091C50A82FD12C090818091C70A23
:102B50008F5F8F732091C80A821751F0E091C70AE6
:102B6000F0E0E255F54F958F8093C70A01C0808150
:102B7000FF91EF919F918F912F910F900BBE0F902E
:102B80000FBE0F901F901895DC0180E0615090F00F
:102B90009D919827E92FEF70F0E0E75EF24F2491C6
:102BA00092959F70E92FF0E0E75DF24FE4918E2F50
:102BB0008227ECCF0895FC0190810180F281E02D05
:102BC000F8948181892B81832281892F8095282304
:102BD0002283A7E0B0E01197F1F72181822381835E
:102BE000A3E2B0E01197F1F780817894EFECF0E088
:102BF0003197F1F7982381E009F480E00895FC0112
:102C000090810180F281E02D892F809560FF12C0B4
:102C1000F8942281822382838181892B8183A3E29C
:102C2000B0E01197F1F78281982B9283789487ED29
:102C300090E011C0F8942281822382838181892BC4
:102C40008183AFEFB0E01197F1F78281982B9283E7
:102C500078948FE090E00197F1F70895CF92DF929A
:102C6000EF92FF920F931F93CF93DF931F92CDB7F5
:102C7000DEB76C01E62E08E010E0FF24F39461E07B
:102C80008F2D8E2109F460E0C60149830E94FF1553
:102C9000FF0C0150110949810115110581F74111FE
:102CA00015C0F894D6011196ED91FC91129791817F
:102CB0008C918095892381831196ED91FC911297D7
:102CC00092818C9180958923828378940F90DF91F3
:102CD000CF911F910F91FF90EF90DF90CF900895CB
:102CE000CF92DF92EF92FF920F931F93CF93DF93D8
:102CF0001F92CDB7DEB78C01F62E40E065E57983F3
:102D00000E942E16CF2C7981D72E760188E0E80E0E
:102D1000F11CF60161916F0140E0C8010E942E167E
:102D2000CE14DF04B1F70F90DF91CF911F910F9177
:102D3000FF90EF90DF90CF900895FC01908101808B
:102D4000F281E02DF8948181292F209582238183BF
:102D500078948DE743E050E0815021F1DA0111973A
:102D6000F1F730813923C1F3F89482818223828381
:102D70008181892B81837894ABE7B7E01197F1F7D4
:102D8000F894818128232183A3E1B1E01197F1F721
:102D90008081982381E009F080E07894E3E6F6E012
:102DA0003197F1F70895FC019081903380F581818E
:102DB00028E830E0281B310987FD3395220F331FA7
:102DC000220F331F621773077CF0828128E532E0FF
:102DD000281B310987FD3395220F331F220F331F24
:102DE000621773070CF49B0122503109220F331F25
:102DF0004FB7F894892F90E0FC01EE0FFF1F8E0F64
:102E00009F1FFC01E056F44F328321834FBF08958A
:102E10001F93CF93DF93EC01162F8881803308F046
:102E20004EC061E0812F0E945F3E8881E82FF0E074
:102E30009F01220F331FE20FF31FE056F44F1F7361
:102E40009081907C192B108319821A826CE00E9469
:102E5000AA559CE0899FB001112440E050E09A01FE
:102E6000260F371FF901EE0FFF1F2E0F3F1FF9012D
:102E7000E056F44F908196FD16C04F5F5F4F4C3087
:102E8000510569F7813001F51092800082E080934E
:102E900081001092850010928400B19A80916F0099
:102EA000826080936F00E881F0E0CF01880F991F66
:102EB000E80FF91FE056F44F808180648083888199
:102EC000DF91CF911F910895823061F410929000AC
:102ED00080939100109295001092940088BB80938B
:102EE0007100E1CF833069F41092A00082E08093FA
:102EF000A1001092A5001092A40089BB80937200DB
:102F0000D2CF8111D0CF1092200182E08093210195
:102F100010922501109224018ABB80937300C3CFC5
:102F20001F920F920FB60F9211240BB60F922F9390
:102F30003F934F935F936F937F938F939F93AF9341
:102F4000BF93EF93FF9348E251E064E271E080E0C9
:102F500090E00E947414FF91EF91BF91AF919F9107
:102F60008F917F916F915F914F913F912F910F9032
:102F70000BBE0F900FBE0F901F9018951F920F92CF
:102F80000FB60F9211240BB60F922F933F934F93CE
:102F90005F936F937F938F939F93AF93BF93EF93C1
:102FA000FF9348EA50E064EA70E083E090E00E941A
:102FB0007414FF91EF91BF91AF919F918F917F9189
:102FC0006F915F914F913F912F910F900BBE0F909A
:102FD0000FBE0F901F9018951F920F920FB60F9271
:102FE00011240BB60F922F933F934F935F936F93E0
:102FF0007F938F939F93AF93BF93EF93FF9348E992
:1030000050E064E970E082E090E00E947414FF9167
:10301000EF91BF91AF919F918F917F916F915F9150
:103020004F913F912F910F900BBE0F900FBE0F90BD
:103030001F9018951F920F920FB60F9211240BB686
:103040000F922F933F934F935F936F937F938F9341
:103050009F93AF93BF93EF93FF9348E850E064E8EA
:1030600070E081E090E00E947414FF91EF91BF91B5
:10307000AF919F918F917F916F915F914F913F9110
:103080002F910F900BBE0F900FBE0F901F901895B1
:10309000669566956695462F50E0542F4427550F48
:1030A000550F550F7695769590E2799F90011124F2
:1030B000BA01622B732B8695869586959B01282BEA
:1030C000C90108952F923F924F925F926F927F9223
:1030D0008F929F92AF92BF92CF92DF92EF92FF9228
:1030E0000F931F93CF93DF93CDB7DEB72C970FB617
:1030F000F894DEBF0FBECDBF7C876B875A014901B4
:10310000FC01E75AFF4F0190F081E02D428053808F
:10311000648075808681978101979C01240D351DFF
:103120003A8329832084318431E0231A3108260C24
:10313000371C49815A81441555052CF058874F8317
:103140005A86498606C058864F82E981FA81FA87F5
:10315000E987261437042CF03C822B827E826D8214
:1031600004C07C826B823E822D8260E070E080E051
:1031700090E02B853C85241535053CF049815A812A
:103180004217530724F442E003C041E001C040E08D
:10319000A614B70414F4446004C02A143B040CF4CD
:1031A0004860841495043CF0E981FA81E815F9053A
:1031B00024F432E003C031E001C030E00615170509
:1031C00014F434600AC02016310614F4386005C0C7
:1031D000411103C0332309F486C0232F242309F0AF
:1031E0008FC04111342F33FF1CC06B817C816A1961
:1031F0007B09F4018B859C85E81BF90BE69FC001D8
:10320000E79F900DF69F900D1124B8016A197B0974
:103210000E94CA558B859C85860F971F6B817C8188
:1032200059C032FF1CC06D817E816A197B09F4018F
:10323000AB85BC85EA1BFB0BE69FC001E79F900DA9
:10324000F69F900D1124B8016A197B090E94CA5596
:103250008B859C85860F971F6D817E813BC031FFDA
:103260001CC06F817885EB85FC856E1B7F0BF80198
:10327000EA19FB09E69FC001E79F900DF69F900DAC
:103280001124B401AB85BC856A1B7B0B0E94CA5517
:103290006A0D7B1D8F8198851DC030FF1BC069851D
:1032A0007A85EB85FC856E1B7F0BF801EA19FB091B
:1032B000E69FC001E79F900DF69F900D1124B40189
:1032C000AB85BC856A1B7B0B0E94CA556A0D7B1DB2
:1032D00089859A85341304C05B019C878B8749CF0D
:1032E0008B014C0146CF8E2DB6010E9448187C01FF
:1032F0009401A5016B857C858BE49BE00E94A72946
:1033000081E02C960FB6F894DEBF0FBECDBFDF91E3
:10331000CF911F910F91FF90EF90DF90CF90BF90D2
:10332000AF909F908F907F906F905F904F903F9065
:103330002F9008952F923F924F925F926F927F92BB
:103340008F929F92AF92BF92CF92DF92EF92FF92B5
:103350000F931F93CF93DF93CDB7DEB7AC970FB624
:10336000F894DEBF0FBECDBF009711F480E019C204
:1033700061157105D9F37BA76AA71C010E94B42EC1
:10338000FC0184AD95AD98A78FA3009779F3FC015C
:1033900081859285892B09F08EC16AA57BA5C10123
:1033A0000E94B42E9A8F898FFC0104ACF5ADE02DFC
:1033B000FCA3EBA3FC016580768047805084E18408
:1033C000F284C384D484EBA1FCA1F589F9A7EBA115
:1033D000FCA1F689FCA7EBA1FCA182809380A080D0
:1033E000B18094012A193B0909F465C1032E000C30
:1033F000440B550BF9A5FF2311F0C60101C0C7010D
:10340000A0E0B0E0BC01CD01EFE0660F771F881FA0
:10341000991FEA95D1F70E943F558901A114B10483
:1034200029F497FC48C1A12CB12C1AC0B7FE43C1A6
:10343000181419041CF0892809F03DC19801D50120
:103440000E94EE5520E030E840E050E00E943F55F9
:1034500050954095309521953F4F4F4F5F4F590103
:1034600021E0E21AF108A3014E0D5F1D5C8F4B8F26
:1034700051E0C51AD108B2016C0D7D1D7EA36DA36C
:10348000EBA1FCA1A481B58198010E94EE5520E03A
:1034900030E840E050E00E943F5537FD11C0F9A5EB
:1034A000FF2339F0B2016A0D7B1D4B01820E931E82
:1034B0002DC1C3018A0D9B1DFC01E20FF31F10C03B
:1034C00069A5662339F042018A0C9B1CB401620F86
:1034D000731F1CC1F301EA0DFB1DCF01820F931F67
:1034E0008DA09EA0B2019E8F8D8F8615970514F436
:1034F0007E8E6D8E78A36F8F6415750514F458A2B7
:103500004F8EFAA3E9A38B8D9C8D8E179F0714F421
:103510009AA389A399A59111DFC09CA59923D1F005
:103520008B8D9C8DE9A1FAA18E1B9F0B93014D8D74
:103530005E8D241B350B6B8D7C8D620F731F7AA300
:1035400069A3F701EA19FB095F019301280F391FED
:103550003E8F2D8F262D7A826982442D5C824B828C
:103560008D8D9E8D861997090196682F9E838D8378
:103570008DA19EA184199509019698878F833A8120
:103580005C817E8198850E94BC20298B3A8B4B8B75
:103590005C8B6D8B7E8B8F8B988FE98DFA8DC288BB
:1035A000D388E48889019A01AB01BC01C1010E9462
:1035B000D22E29A149A15AA15A8349838B8D9C8D72
:1035C000841B950B0196682F9E838D833A814B81D6
:1035D0005C817E818F8198850E94BC20298B3A8BEB
:1035E0004B8B5C8B6D8B7E8B8F8B988FE98DFA8DDF
:1035F000C288D388E48889019A01AB01BC01C1016A
:103600000E94D22E2D8D4D8D5E8D5A8749874F8D0C
:103610006F8D78A17C876B8789A19AA1ED8DFE8D36
:103620008E1B9F0B0196682F9E878D87C401EF8D9F
:10363000F8A18E1B9F0B0196988B8F873A855C852E
:103640007E8598890E94BC20298B3A8B4B8B5C8BA2
:103650006D8B7E8B8F8B988FEBA1FCA1C384D48460
:10366000E58489019A01AB01BC01C1010E94D22EFF
:10367000E98DFA8DC784D088E188F9A5FF2309F484
:1036800088C0A2014A0D5B1D8A012B8D3C8DB301C0
:10369000C1010E946218E98DFA8DC784D088E18843
:1036A0000581168127813085418552856385748522
:1036B000C1010E94352FEFA1F8A5848195819783E0
:1036C000868381E08087EAA5FBA5828193818F7C38
:1036D0009383828381E065C0ECA5E1111BC02DA11D
:1036E0003EA128193909C2014F8D58A1841B950BA1
:1036F0008DA09EA0880E991EB6016A197B095B01F8
:10370000C201820F931F98A38F8F04C0EB8DFC8D95
:10371000C301E9CE262D7A826982442D5C824B82D8
:103720008B8D9C8D861997090196682F9E838D83BA
:103730008F8D98A184199509019698878F833A8176
:103740005C817E8198850E94BC20298B3A8B4B8BB3
:103750005C8B6D8B7E8B8F8B988FE98DFA8DC288F9
:10376000D388E48889019A01AB01BC01C1010E94A0
:10377000D22E482D9C828B828DA19EA188199909F9
:10378000019698878F8329813A815C816D817E8142
:1037900022CFB3016A0D7B1D0DA11EA19B01A201C9
:1037A00077CFAC960FB6F894DEBF0FBECDBFDF91DA
:1037B000CF911F910F91FF90EF90DF90CF90BF902E
:1037C000AF909F908F907F906F905F904F903F90C1
:1037D0002F9008952091630B3091640B009749F06E
:1037E000232B99F42091590B30915A0B2A5F3F4FAC
:1037F00008C0232B51F02091590B30915A0B2650C1
:10380000310930935A0B2093590B9093640B80939A
:10381000630B08952F923F924F925F926F927F9227
:103820008F929F92AF92BF92CF92DF92EF92FF92D0
:103830000F931F93CF93DF93CDB7DEB76B970FB680
:10384000F894DEBF0FBECDBF7C876B875E874D8748
:10385000388B2F871A8B098BFB0111821082FA019A
:1038600011821082F80111821082F90111821082F6
:103870002090530B3090540B0091550B1091560B28
:103880004090630B5090640B92012C5F3F4F3C8B38
:103890002B8BB2016B5F7F4F7E8B6D8B225031097A
:1038A000388F2F8B8090610B90905F0B692D70E0AB
:1038B0007C836B832C5F3F4F3E832D83F3E0660F49
:1038C000771FFA95E1F77A836983E6E09E9EB0015F
:1038D000112478876F839A8789877101AFEFBFEFD3
:1038E0002FEF3FEF3B8F2A8F40E050E020E030E0A9
:1038F000E985FA856191FA87E987662309F4D2C0E0
:103900004114510409F493C06A3041F4ED81FE8101
:103910008491989E400D511D1124E8CF6D3041F3E4
:10392000EB89FC89C490ED89FE898491062E000CF8
:10393000770BD12C6C157D05DCF290E0861797078C
:10394000BCF2AF88B88CF501859194916C197D0912
:10395000E7E0DE2ED69EF001D79EF00D11248E0FEB
:103960009F1FFC013296C4903196D4905C0164E0B4
:10397000A60EB11CF501F491F98FFC0135967491F6
:10398000319684918820E9F06C2C712C670E711CA3
:1039900077FD7A94EB81FC816E9E50016F9EB00C96
:1039A0007E9EB00C1124A20EB31E2A143B044CF4CC
:1039B000ED81FE819491999E400D511D112420E0CE
:1039C00030E0692D7603F0011124E20FF31F782F08
:1039D0007603C0011124840F951F5F01C99CA00CC0
:1039E000B11C112461E0A61AB108BC01D99C600D7C
:1039F000711D11246B0171E0C71AD108EE15FF0586
:103A00000CF47F01801791070CF48C018A8D9B8D3B
:103A10008A159B0514F4BB8EAA8EAC15BD050CF45B
:103A2000D601998D999D200D311D112461CF6A30E9
:103A300029F429813A81420F531F58CF6D3009F480
:103A400057CF882069F08F819885820F931F2816A1
:103A5000390634F469817A81460F571F20E030E03F
:103A60006F817885620F731F6B0181E0C81AD108DE
:103A700089819A81840F951F0197EA8DFB8DEC1542
:103A8000FD0514F4DB8ECA8EA817B9070CF4DC010F
:103A90002E153F050CF47901401751070CF48A01EB
:103AA0009B0126CF2A8D3B8D2E153F0564F0EB85BB
:103AB000FC85F182E082C9018E199F090196EF858C
:103AC000F88991838083A017B1075CF0ED85FE85AE
:103AD00011830083A01BB10B1196E989FA89B18388
:103AE000A0836B960FB6F894DEBF0FBECDBFDF91FB
:103AF000CF911F910F91FF90EF90DF90CF90BF90EB
:103B0000AF909F908F907F906F905F904F903F907D
:103B10002F9008952F923F924F925F926F927F92D3
:103B20008F929F92AF92BF92CF92DF92EF92FF92CD
:103B30000F931F93CF93DF93CDB7DEB72D970FB6BB
:103B4000F894DEBF0FBECDBF9F838E8379876887D1
:103B5000FA01422EDA011296222339F0849190E084
:103B6000982F88273196E49105C0808190E0982FA6
:103B70008827E181F0E09C012E2B3F2B3D872C878D
:103B80009D012E5F3F4F442041F0FD01849190E064
:103B9000982F88273196E49106C08C9190E0982F59
:103BA00088271196EC91F0E0AC014E2B5F2B5B83E4
:103BB0004A83C9010396442049F0F901F491F9833D
:103BC000F901319654903196649006C0D901BC91A8
:103BD000B983F901518062801C01FFEF2F1A3F0A5F
:103BE0008C859D85079697FF03C08C859D850E96D5
:103BF0009C0193E0359527959A95E1F73D832C83B9
:103C0000C12CD12C712CE12CF12CEA81FB81EE1618
:103C1000FF060CF069C000E010E091012C0D3D1D85
:103C20003B872A87888499848E0C9F1C8C859D8570
:103C3000081719070CF043C0C80187709927892B12
:103C400011F0770C13C0F80183E0F595E7958A959C
:103C5000E1F7442031F0EC0DFD1DE20DF31D7490F1
:103C600005C04A855B85E40FF51F708077FE24C090
:103C7000AE80BF80A00EB11EE0918B0AF0918C0A3D
:103C80002281338184819581668177814085518548
:103C9000A216B3068CF061507109260F371F2A1542
:103CA0003B0554F0881699063CF041505109840FA9
:103CB000951F881599055CF40F5F1F4FB7CF9FEFD5
:103CC000E91AF90AAC81BD81CA0EDB1E9ECF69815B
:103CD000752D862D0E9448189C01A401B5018BE426
:103CE0009BE00E94A634E8CF2D960FB6F894DEBF75
:103CF0000FBECDBFDF91CF911F910F91FF90EF903D
:103D0000DF90CF90BF90AF909F908F907F906F90FB
:103D10005F904F903F902F900895AF92BF92CF92B7
:103D2000DF92EF92FF920F931F93CF93DF931F9237
:103D30001F92CDB7DEB77C015B016A01198241E0B9
:103D40006FEF2A830E945731182F40E060E0C701CF
:103D50000E945731182B40E06FEFC7010E94573186
:103D6000182B2A81222331F0A5016BECC7010E9498
:103D7000E030182B002341F0AE014F5F5F4F6EEE35
:103D8000C7010E94E030182B41E06FEFC7010E948D
:103D90005731182B41E060E0C7010E945731182BC2
:103DA00040E06FEFC7010E94573199819F7EF60175
:103DB0009083812B0F900F90DF91CF911F910F91E6
:103DC000FF90EF90DF90CF90BF90AF900895EF926B
:103DD000FF920F931F93CF93DF931F92CDB7DEB760
:103DE0007C0100E041E06BE0C7010E945731182FD1
:103DF00040E06BE0C7010E945731182BAE014F5FC6
:103E00005F4F63E1C7010E94E030912F982B0F5F55
:103E10008981877029F0033029F0992319F303C0B1
:103E2000033009F494EF892F0F90DF91CF911F9108
:103E30000F91FF90EF9008950F931F93CF93DF930F
:103E40001F921F92CDB7DEB7FC01E253FF4F2081D6
:103E50002150233088F48C01AE014F5F5F4F6EE03C
:103E60000E94B130811109C0AE014F5F5F4F6CE01D
:103E7000C8010E94B13001C080E00F900F90DF9127
:103E8000CF911F910F9108954F925F926F927F9201
:103E90008F929F92AF92BF92CF92DF92EF92FF925A
:103EA0000F931F93CF93DF93EC01F9010FEF1FEFF7
:103EB000980100831183228333834A015B0183E0ED
:103EC000B694A794979487948A95D1F78A019B0119
:103ED00007701127222733272401350193E0440C72
:103EE000551C661C771C9A95D1F77501640140E05A
:103EF00086E0C816D104E104F104D0F5411138C0C0
:103F0000DE01AC0DBD1D6C91C814D904EA04FB049C
:103F100051F470E0002E02C0759567950A94E2F79F
:103F2000D901C80103C080E090E0DC0160FF0CC053
:103F3000AC01BD01440D551D661D771D40835183A5
:103F40006283738341E009C066950196A11DB11D8E
:103F500088309105A105B10549F78FEFC81AD80A35
:103F6000E80AF80A88E0480E511C611C711CC0CF99
:103F7000DF91CF911F910F91FF90EF90DF90CF9045
:103F8000BF90AF909F908F907F906F905F904F9079
:103F900008952F923F924F925F926F927F928F92ED
:103FA0009F92AF92BF92CF92DF92EF92FF920F93C8
:103FB0001F93CF93DF93CDB7DEB764970FB6F89416
:103FC000DEBF0FBECDBF1C01698B5B8B4A8B388B6C
:103FD0002F8727013801EF82F88609871A871B8609
:103FE0001C861D861E86EE24E394F12C8B859C8511
:103FF000AD85BE858A159B05AC05BD0509F468C075
:104000009E01295F3F4FB301A2018A899B890E94CB
:10401000441F8F819885A985BA858F3F2FEF92071E
:10402000A207B20709F456C0AC01BD014C545F4F62
:104030006F4F7F4FE6E07695679557954795EA95E0
:10404000D1F7440F551F440F551FFA01EB5CFC4F8D
:1040500021E04081518162817381452B462B472BA2
:1040600009F420E03989231335C08C019D0143E018
:1040700036952795179507954A95D1F7AC01BD015F
:10408000477055276627772706301105210531052A
:1040900060F4EF85F889E00FF11F970101C0220F4E
:1040A0004A95EAF73081232B20832C013D01EFEF65
:1040B0004E1A5E0A6E0A7E0A8B859C85AD85BE858A
:1040C0000196A11DB11D8B879C87AD87BE878ECFC2
:1040D00070E001C07EECD4014D925D926D927C92B5
:1040E000139771112AC06F857889C1010E94F50A62
:1040F000782F811122C0F101EF5BFE4F06E010E046
:1041000020E030E0AE014F5F5F4F60EB80817C8B41
:104110000E94982F7C89892B09F07CEEAF85B889A5
:10412000FE013196CE0107963D912191321304C0D4
:10413000E817F907C9F701C07EEC872F64960FB620
:10414000F894DEBF0FBECDBFDF91CF911F910F91CD
:10415000FF90EF90DF90CF90BF90AF909F908F90A7
:104160007F906F905F904F903F902F900895BC018B
:104170008EEA9AE00C943B15CF93DF93CDB7DEB770
:1041800060970FB6F894DEBF0FBECDBF29873A8780
:104190004B875C876D877E878F87988B2D853E85C3
:1041A0008F8598892230310518F08230910548F4C6
:1041B0001A8219821C821B821E821D8218861F820F
:1041C00013C04B855C854F5F5F4F69857A856F5F54
:1041D0007F4F7A8369835C834B83225031093E830E
:1041E0002D83029798878F8329813A814B815C8147
:1041F0006D817E818F81988560960FB6F894DEBFC1
:104200000FBECDBFDF91CF910895EF92FF920F9334
:104210001F93CF93DF93CDB7DEB728970FB6F894EF
:10422000DEBF0FBECDBFE982FA822D833E83498176
:104230005A812D813E8121153105D1F0F901E770B8
:10424000FF27E130F105B1F0E330F10539F42077D3
:1042500033272033310571F420E008C0349751F43E
:10426000207733272033310529F421E00E948A1D6D
:1042700081E001C080E028960FB6F894DEBF0FBE43
:10428000CDBFDF91CF911F910F91FF90EF900895D7
:104290002F923F924F925F926F927F928F929F9256
:1042A000AF92BF92CF92DF92EF92FF920F931F9344
:1042B000CF93DF93CDB7DEB76C970FB6F894DEBF20
:1042C0000FBECDBF9A8B898B8B012DB73EB73C8F2C
:1042D0002B8FBC0182E39AE00E94B42E5C01FC01AA
:1042E000E05CFF4F0190F081E02D309739F0A8019C
:1042F00069897A8982E39AE0199503C2DC011596EF
:104300004D905C90169717962D903C9018971996A3
:10431000ED91FC911A97FC8BEB8B1B962D913C91A8
:104320001C973E8B2D8B12968C9182FB772470F814
:10433000A989BA89109731F012968C9086FA882450
:1043400080F801C0812C98E0F5013596DE011196C8
:1043500001900D929A95E1F78370833091F4298151
:104360003A814B815C816D817E818F8198850E942D
:10437000BC2029833A834B835C836D837E838F8348
:104380009887F501828180FF19C0772031F088205D
:1043900021F0C08CD18CE28C05C0D5015296CD9015
:1043A000DD90EC9009811A812B813C814D815E81E9
:1043B0006F81788582E39AE00E94D22EF501828196
:1043C00081FF0FC0C784D088E188058116812781CD
:1043D0003085418552856385748582E39AE00E9429
:1043E000352FD50113968D919C9114970597B1F4B3
:1043F0005296CD90DD90EC900D891E8901501109E7
:10440000020D131D2B893C8921503109240D351DC6
:10441000A101B20182E39AE00E946218F501878D42
:1044200090A1892B69F1772079F0882069F087A124
:1044300090A5892B49F0E3A0F4A005A116A127A11E
:1044400030A541A552A518C0D5015B96EC905B97AD
:104450005C96FC905C975D960C915D975E961C91C6
:104460005E975F962C915F9790963C91909791966E
:104470004C91919792965C91B101C2010E940521E5
:10448000F501E5A4F6A4E114F10409F49CC0F501DA
:1044900000A911A9C8018C709927892B09F493C030
:1044A00091AC292D30E0388F2F8B882009F49CC0E7
:1044B000772009F499C0D501D5966D907D908C90A8
:1044C000D501DA96ED91FC91DB97C68084819581C8
:1044D0000E94EA1B8C2DC11001C081E080935F0B0C
:1044E000037011270115110509F083C08E01075FC4
:1044F0001F4F9E01255F3F4FAE01435F5F4FBE01DF
:10450000615F7F4FC7010E940A1C80E090E00E941B
:10451000EA1BF50140AD40FFA5C08F89988D840D41
:10452000951D44FFB8C0AF89B88D2A0E3B1ECF84BD
:10453000D888C80ED91E8D859E858101081B190B50
:10454000D501D096ED90FC90D1979D962C909D979B
:104550009E963C909E97DA96AD90BC90DB97F501C5
:104560009680882DB3010E9448183C01D50114960D
:104570008D919C9115970E94EA1B70925E0B609240
:104580005D0B70925C0B60925B0BD092580BC092EB
:10459000570B10935A0B0093590B892D911001C0A2
:1045A00081E080935F0BB3E0EB22FF24E114F10480
:1045B00009F089C0B1018BE49BE00E94501580E0B6
:1045C00090E00E94EA1B29893A892115310509F4F6
:1045D00098C0D90112968D919C9113978F7C139658
:1045E0009C938E9312978DC0F50162A873A884A83E
:1045F00067CF0130110509F088CFEDB7FEB7FA8F0C
:10460000E98FC7010E9427558C0101962DB73EB74F
:10461000281B390B0FB6F8943EBF0FBE2DBF8DB7C8
:104620009EB701966C01A801B7010E943055F601B2
:10463000E00FF11F10828E01075F1F4F9E01255F63
:104640003F4FAE01435F5F4FBE01615F7F4FC601C9
:104650000E940A1CA98DBA8D0FB6F894BEBF0FBE7A
:10466000ADBF53CF2B853C8542FF0AC0C201821BE0
:10467000930B2B893C89820F931F8919910951CF84
:104680008B899C8996958795840D951D36952795E0
:10469000821B930B46CF29853A8546FF09C0221A13
:1046A000330AED89FE892E0E3F1E291831083FCFAF
:1046B0000D891E8916950795200E311E3695279572
:1046C000221A330A34CFEA94EF2809F078CFF101A7
:1046D00064918F010F5F1F4F662361F0E0914B0BD8
:1046E000F0914C0B0190F081E02D8BE49BE019954B
:1046F000F801EECF6CEE73E08BE49BE00E943B157B
:104700005ECF81E0AB8DBC8D0FB6F894BEBF0FBEFF
:10471000ADBF6C960FB6F894DEBF0FBECDBFDF9174
:10472000CF911F910F91FF90EF90DF90CF90BF90AE
:10473000AF909F908F907F906F905F904F903F9041
:104740002F9008957F928F929F92AF92BF92CF92B7
:10475000DF92EF92FF920F931F93CF93DF93CDB72A
:10476000DEB72E970FB6F894DEBF0FBECDBF2887F9
:1047700039874A875B876C877D878E87E884F984D1
:104780008B849C8482E0E816F10409F467C0C701B9
:104790008D7F019711F081E066C0C12CD12CA12C36
:1047A000B12C87E0782EF40184859585A816B9068A
:1047B00090F7F401008511850C0D1D1DF986E88622
:1047C0009C868B86FE013896DE011196872D01901E
:1047D0000D928A95E1F72B81F1E0EF16F10429F0B3
:1047E00083E0E816F10411F132C00115110579F1E9
:1047F000F80182819381807399278031910519F0A6
:10480000809731F02DC0223039F061E070E007C0B0
:1048100062E070E0223019F461E070E003C001153D
:104820001105A9F0C8010E94482111C0B80182E316
:104830009AE00E94B42EFC01EC5BFF4F0190F081E6
:10484000E02D309721F0B80182E39AE01995FFEF4F
:10485000AF1ABF0A84E0C80ED11CA5CF80E003C008
:104860002230A9F7D9CF2E960FB6F894DEBF0FBE2F
:10487000CDBFDF91CF911F910F91FF90EF90DF900F
:10488000CF90BF90AF909F908F907F900895AF9200
:10489000BF92CF92DF92EF92FF920F931F93CF932D
:1048A000DF931F92CDB7DEB75C01D62EE72EFC0159
:1048B0008585811105C0C5010E949D16811106C024
:1048C000F50113861586148680E065C040E060EF30
:1048D000C5010E942E1601E0F12CC12C11E0C5018A
:1048E0000E94DB15682FC50169830E94DB15698171
:1048F000613019F48130B9F433C04F2D50E06813A2
:104900001BC0F5018385181730F4E40FF51F838170
:10491000802349F402C0181731F060E0193058F4D0
:10492000F501148708C0F501EF0DF11D8381802B7F
:10493000838361E009C0C12EF501E40FF51F938167
:10494000802F809589238383C5010E94FF151F5FF7
:10495000000F11F4F39401E0F7E0FF1508F0BFCF6A
:10496000113408F4ADCFF501C386C11002C081E057
:104970008587F5018381882309F4A2CFD501139699
:10498000ED2DFE2D9501255F3F4F8D918193A2174F
:10499000B307D9F781E00F90DF91CF911F910F916D
:1049A000FF90EF90DF90CF90BF90AF900895AF92BF
:1049B000BF92CF92DF92EF92FF920F931F93CF930C
:1049C000DF938B01BC018091450C9091460C0E94B5
:1049D000701640E06EEB8091450C9091460C0E9461
:1049E0002E16E801680189E0C80ED11CA090450C84
:1049F000B090460C88E0E82EF12C01E010E0C501F3
:104A00000E94DB158111102B000F81E0E81AF108DC
:104A1000B1F71993CC15DD0549F78091450C9091BC
:104A2000460C0E949D1691E0813009F090E0892F9C
:104A3000DF91CF911F910F91FF90EF90DF90CF907A
:104A4000BF90AF9008950F931F93CF93DF93CDB78F
:104A5000DEB729970FB6F894DEBF0FBECDBFFC01BD
:104A60002081203161F18C018091450C9091460CA0
:104A70000E949D16882309F1BE016F5F7F4FC80118
:104A80000E94D7248823C9F068E0CE0101960E94D5
:104A9000C4159985891311C08D818F3361F020F47D
:104AA0008F3159F489E00CC08F3519F08F3739F008
:104AB00004C08BE005C08AE003C080E001C08CE048
:104AC00029960FB6F894DEBF0FBECDBFDF91CF9110
:104AD0001F910F9108958F929F92AF92BF920F9363
:104AE0001F93CF93DF93CDB7DEB7A1970FB6F8949E
:104AF000DEBF0FBECDBF19A2423008F44AE08E01DE
:104B00000F5D1F4F842E912CA12CB12CA501940177
:104B10000E946955E62FB901CA0101501109EA3016
:104B200014F4E05D01C0E95CD801EC93232B242B45
:104B3000252B61F7B8018EEA9AE00E943B15A196F9
:104B40000FB6F894DEBF0FBECDBFDF91CF911F919E
:104B50000F91BF90AF909F908F900895CF92DF926A
:104B6000EF92FF92CF93DF936C01990FEE08FF084D
:104B7000F7FE1AC0E091AE0AF091AF0A0190F08101
:104B8000E02D6DE28EEA9AE01995EC016627772711
:104B9000CB016C197D098E099F094AE00E946B25A3
:104BA0007C01EC0EFD1E06C04AE0C701B6010E9462
:104BB0006B257C016CEE73E08EEA9AE00E943B1557
:104BC0008E0D9F1DDF91CF91FF90EF90DF90CF90E2
:104BD00008952091310A9091300A213208F04AC09C
:104BE00080910D0A8111FCCF32E030930D0A31E043
:104BF00030930C0A3FEF30930B0A10920A0A20936D
:104C0000090AA0E1BAE049EE59E0FA013E2F341B4F
:104C1000321718F43D913193F9CF1092E8092091A1
:104C2000E809990F922B9093E8099091E709913048
:104C300061F41092E7099091E8099093BB0090917C
:104C4000BC0093FDF8CF95EC01C095EE9093BC00AD
:104C500090910D0A9230E1F390910B0A9F3F79F009
:104C600080910B0A803241F080910B0A803331F041
:104C700084E005C081E003C082E001C083E01092BF
:104C80000F0A1092310A10920E0A08950895FC013D
:104C90006370658B8481958126813781613039F01D
:104CA000633029F091878087338722870895318781
:104CB00020879387828708952F923F924F925F9229
:104CC0006F927F928F929F92AF92BF92CF92DF921C
:104CD000EF92FF920F931F93CF93DF93CDB7DEB781
:104CE0006C970FB6F894DEBF0FBECDBF9C8F8B8F35
:104CF0005B011A011F830E833701C982DC015896BC
:104D00004D915C9159974115510509F0E5C01896F0
:104D10008D919C911997681779070CF0CAC11A9662
:104D20008D919C911B97281639060CF0C2C18C2CD2
:104D3000912CFB0136E0C39EE00DF11D1124FB8791
:104D4000EA871E161F060CF0B4C1C40133E0880FB9
:104D5000991F3A95E1F79D878C87820D931D181650
:104D600019060CF0A6C157968C91811103C0203B07
:104D700008F02F5FAB8DBC8DED91FC9111970284F3
:104D8000F385E02DCD012A8F19952A8DB5E02B9F53
:104D900090011124F5013596FF87EE87BB82AA8228
:104DA0002501A9014A195B09598B488BC101089655
:104DB0009B8B8A8BE889F989E40DF51DE15CF14F45
:104DC0009491988761013D822C82A885A0FF13C031
:104DD000AB8DBC8DED91FC91B981B13031F404847F
:104DE000F585E02D2E813F8116C00684F785E02DE4
:104DF000EE80FF801AC0EE81FF816E167F06F1F013
:104E0000AB8DBC8DED91FC91B981B13051F404842E
:104E1000F585E02D9301A601B2018B8D9C8D19952E
:104E20000DC00684F785E02D7301840194014C8147
:104E30005D816A817B818B8D9C8D1995E885E695D6
:104E4000E887FFEFCF1ADF0A2C813D81280D391D3D
:104E50003D832C834A895B89C416D50609F0B5CFFA
:104E60005FEF451A550A8A819B81880D991D9B83A6
:104E70008A83AE85BF854A165B0609F09BCFEE811B
:104E8000FF816E167F0609F4F2C0EB8DFC8DA081C8
:104E9000B181F981F13079F4B5016B5F7F4F5096A4
:104EA000ED91FC915197830128E030E0A1018B8DB9
:104EB0009C8D1995DCC06A857B85681979091E96D9
:104EC000ED91FC911F9773010C851D859401A10143
:104ED0008B8D9C8D1995CBC0FA01349694913297A5
:104EE00065917491291BCB01B7E02B9F800D911D1B
:104EF0001124FA01259134913B8B2A8BFC014591B9
:104F000054915B834A83FC013296C490319654914C
:104F10005E87329614913196D4908981823058F010
:104F2000612E012E000C7708AD2D0D2C000CBB0B53
:104F3000B987A88704C019861886612C712CAB8D9F
:104F4000BC8DED91FC9111970284F385E02DCD018C
:104F50001995B9818B2E912C689CC001699C900D8C
:104F6000789C900D1124FC01EA0DFB1DFD87EC8758
:104F70001C82712C612CE12F110FFF0B95012E0F5C
:104F80003F1F3B872A87AC0CB11CA5014E0F5F1F4A
:104F90005F8B4E8BC1018D0D911DD7FC9A95998F1A
:104FA000888F4E85641608F062C0862D90E0488593
:104FB0005985480F591F489D9001499D300D589DB6
:104FC000300D1124D901A20DB31DB98BA88BAA8471
:104FD000BB844C845D84DC80BA85DB1AE88DF98D56
:104FE000E80FF91FFD8BEC8B8D2D8A0D2E893F89E3
:104FF000A216B306B9F1877061F48A819B8101968C
:10500000EA89FB89AA81BB81EA0FFB1F74909B830D
:105010008A8377FE20C0AB8DBC8DED91FC91B98168
:10502000B13061F40484F585E02D2E813F814C89F7
:105030005D89B5018B8D9C8D19950DC00684F78512
:10504000E02DEE80FF808401940148895989B201E6
:105050008B8D9C8D1995770CEFEFAE1ABE0A480C1C
:10506000591CC2CF3C813C0D3C8363949ACFAB8DDD
:10507000BC8DED91FC9111970688F789E02DCD014B
:105080006C960FB6F894DEBF0FBECDBFDF91CF9107
:105090001F910F91FF90EF90DF90CF90BF90AF9056
:1050A0009F908F907F906F905F904F903F902F9048
:1050B00019946C960FB6F894DEBF0FBECDBFDF918A
:1050C000CF911F910F91FF90EF90DF90CF90BF9005
:1050D000AF909F908F907F906F905F904F903F9098
:1050E0002F900895AF92BF92CF92EF92FF920F93BD
:1050F0001F93CF93DF93EC01262F888D998D009716
:1051000009F040C06A3059F41D861C862C898E85B2
:105110009F8538E0239F800D911D112441C06D3083
:1051200009F4AAC08E898823C1F03C898C859D85AD
:1051300046E0349F800D911D1124488559854817FC
:1051400059075CF41D861C868E859F8548E0349F38
:10515000800D911D11249F878E87EA88FB8808891E
:1051600019894E855F856C857D85CC88CE010E942E
:105170005C262C898C859D8536E0239F800D911DB2
:10518000112442C06A3079F41D861C862C89FC01EA
:105190003696E4918E859F852E9F800D911D11245A
:1051A0009F878E8769C06D3009F466C0FC01349614
:1051B0003491631708F460C03196E491E61708F45F
:1051C0005BC0FC013296A590B490462F50E0431B83
:1051D000510937E0349FB001359F700D1124A60EA0
:1051E000B71EF501329634913196E491332311F0D4
:1051F000E1110DC0F5013496E4912C898C859D85D3
:10520000E29F800D911D11249D878C8735C0F5018B
:10521000359644915E89552311F16C89E32FF0E0B6
:10522000E40FF11D47FDFA956E9FD0016F9FB00D01
:1052300011244C855D854A0F5B1FE885F985E417CD
:10524000F5076CF41D861C86FC013696E4918E856C
:105250009F856E9F800D911D11249F878E87EA8800
:10526000FB88088919894E855F856C857D85CC888A
:10527000CE010E945C26BECF81E090E0DF91CF910D
:105280001F910F91FF90EF90CF90BF90AF90089536
:105290006F927F928F929F92AF92BF92CF92DF9246
:1052A000EF92FF920F931F93CF93DF93EC014B018B
:1052B0005A0169013801E881F9810284F385E02D02
:1052C0001995E881F9810288F389E02D870196011B
:1052D000A501B401CE011995E881F981A501460D1A
:1052E000571D415051090288F389E02D9601B40100
:1052F000CE011995E881F9810088F189E02D9301AB
:10530000A501B401CE011995E881F981C80CD91C19
:10531000B601615071090088F189E02D9301A50162
:10532000CE011995E881F9810688F789E02DCE0133
:10533000DF91CF911F910F91FF90EF90DF90CF9071
:10534000BF90AF909F908F907F906F901994CF9265
:10535000DF92EF92FF920F931F93CF93DF9300D0D2
:1053600000D0CDB7DEB76C01DC01ED91FC91621786
:10537000730789F4041715072CF4942F852FA801BF
:10538000092F182F041B150B98012F5F3F4F048C1A
:10539000F58DE02D12C04017510709F52617370784
:1053A0002CF4962F872FB901292F382F261B370B66
:1053B0002F5F3F4F068CF78DE02D8701C6011995B1
:1053C00026960FB6F894DEBF0FBECDBFDF91CF910A
:1053D0001F910F91FF90EF90DF90CF90089502847E
:1053E000F385E02D2D833E834B835C8369837A8331
:1053F0001995D601ED91FC910488F589E02D2D8158
:105400003E814B815C8169817A81C6011995D60103
:10541000ED91FC910688F789E02DC60126960FB61E
:10542000F894DEBF0FBECDBFDF91CF911F910F91DA
:10543000FF90EF90DF90CF901994EF92FF920F932F
:105440001F93DC01ED91FC9111971A960D911C911F
:105450001B9718962D913C91199700A0F1A1E02D72
:105460007B0140E050E060E070E019951F910F91E2
:10547000FF90EF9008954F925F926F927F928F927C
:105480009F92AF92BF92CF92DF92EF92FF920F93D3
:105490001F93CF93DF931F921F92CDB7DEB76C019E
:1054A0005A0139014801DC01ED91FC910284F38538
:1054B000E02D69837A8319956981462E7A81572E6A
:1054C000640C751CD601ED91FC91461457046CF4E4
:1054D0000088F189E02D87019401A501B201C60180
:1054E0001995BFEF4B1A5B0AEDCF0688F789E02DBF
:1054F000C6010F900F90DF91CF911F910F91FF90F8
:10550000EF90DF90CF90BF90AF909F908F907F9063
:105510006F905F904F901994AF92BF92CF92DF92AD
:10552000EF92FF920F931F93CF93DF9300D01F92C0
:10553000CDB7DEB75C016901DC01ED91FC9102841D
:10554000F385E02D4B835C8369837A831995D501BC
:10555000ED91FC9169817A819B012C0D3D1D2150BB
:1055600031090488F589E02D78014B815C818A013D
:10557000C5011995D501ED91FC910688F789E02DBB
:10558000C5010F900F900F900F90DF91CF911F9159
:105590000F91FF90EF90DF90CF90BF90AF90199454
:1055A000AF92BF92CF92DF92EF92FF920F931F9331
:1055B000CF93DF9300D01F92CDB7DEB75C016901B6
:1055C000DC01ED91FC910284F385E02D4B835C833B
:1055D00069837A831995D501ED91FC914B815C81AA
:1055E000C40ED51EB1E0CB1AD1080488F589E02D90
:1055F0007801860169817A819B01C5011995D501E0
:10560000ED91FC910688F789E02DC5010F900F9070
:105610000F900F90DF91CF911F910F91FF90EF901E
:10562000DF90CF90BF90AF9019940895EF92FF92C2
:105630000F931F93DC01ED91FC9100A0F1A1E02DEF
:1056400019951F910F91FF90EF9008950F931F935D
:10565000DC01ED91FC91068CF78DE02D19951F91E1
:105660000F9108950F931F93DC01ED91FC91048C31
:10567000F58DE02D19951F910F910895DC01ED91A5
:10568000FC910084F185E02D199408952F923F92AA
:105690004F925F926F927F928F929F92AF92BF9242
:1056A000CF92DF92EF92FF920F931F93CF93DF93EE
:1056B00000D0CDB7DEB74C017B836A836A01590104
:1056C00017019801241B350B37FF03C03195219535
:1056D0003109C5014A815B81841B950B97FF03C08B
:1056E00091958195910951E059838217930714F0A0
:1056F00019820BC09A2D8B2D5801092F182F9A81D2
:105700008B81DB82CA82C92ED82E8A819B81A81602
:10571000B9065CF49C2D8D2D6801092F182F9A81F4
:105720008B81BB82AA82A92EB82E2501AA81BB81BA
:105730004A1A5B0A38016C187D0877FE03C0719421
:1057400061947108720157FE03C0BFEFEB1AFB0AA8
:10575000F594E794C016D1061CF00FEF1FEF1FC0A1
:1057600001E010E01CC0D401ED91FC91B9810484EA
:10577000F585E02D9101BB23C1F04A815B81B60123
:10578000C4011995E618F708F7FE04C0C00ED11E33
:10579000E40CF51CEA81FB813196FB83EA834A81A4
:1057A0005B81A416B506FCF604C0A6016A817B8164
:1057B000E7CF0F900F900F90DF91CF911F910F9136
:1057C000FF90EF90DF90CF90BF90AF909F908F9021
:1057D0007F906F905F904F903F902F90089585ED50
:1057E0008093BC008091BC0084FDFCCF10920D0A18
:1057F00008954091590E262F30E0240F311D21329B
:105800003105DCF420910D0A2430C9F4FC0180E05C
:1058100090E0861758F43091590E2191DC01A95C73
:10582000B14FA30FB11D2C930196F3CF8091590E68
:10583000680F6093590E80E0089581E0089582E03A
:1058400008950895E091360E8091350EE81730F4F2
:10585000F0E0EB5EF14F808190E008958FEF9FEFD5
:1058600008959091360E8091350E981750F4E92FD7
:10587000F0E0EB5EF14F208130E09F5F9093360EB9
:1058800002C02FEF3FEFC90108958091350E90E0DF
:105890002091360E821B91090895CF92DF92EF92EC
:1058A000FF920F931F93CF93DF937C01262F972FA7
:1058B0008A0180910E0A882391F0C62FD72F6E019E
:1058C000C40ED51ECC15DD0571F06991D701ED919F
:1058D000FC910190F081E02DC7011995F3CF642F61
:1058E000822F0E94F92BC801DF91CF911F910F9158
:1058F000FF90EF90DF90CF900895CF93DF931F92AA
:10590000CDB7DEB7698320910E0A2223D1F0209112
:10591000310A203240F021E030E0FC013383228361
:1059200080E090E015C080910F0AE82FF0E0E05F82
:10593000F54F998190838F5F80930F0A8093310A8E
:1059400005C061E0CE0101960E94F92B81E090E054
:105950000F90DF91CF9108951F93CF93DF93EC01C8
:1059600063706D8B6230C1F0633001F1613051F0D2
:1059700080E491E09987888780EE91E09B878A8711
:1059800010EC1DC080EE91E09987888780E491E05B
:105990009B878A8710EA13C080E491E09987888703
:1059A00080EE91E09B878A8710E009C080EE91E04D
:1059B0009987888780E491E09B878A8710E6E88151
:1059C000F9810284F385E02DCE01199566E3CE01BD
:1059D0000E941736612FCE010E94D435E881F981EB
:1059E0000688F789E02DCE01DF91CF911F911994A0
:1059F0001F920F920FB60F9211240BB60F922F9396
:105A00003F934F935F936F937F938F939F93AF9346
:105A1000BF93EF93FF938091B900887F803609F49C
:105A20009CC068F5883209F45BC090F4803109F4B9
:105A300054C038F4882309F4F6C0883009F44DC006
:105A4000F6C0883109F44CC0803209F45DC0EFC063
:105A5000803409F468C048F4803309F455C08833B1
:105A600009F0E5C080930B0AD8C0803509F44FC017
:105A7000883509F45DC0883409F0D9C0D6C08839AA
:105A800009F4C7C0A8F4883709F467C038F4883629
:105A900009F463C0803709F460C0C9C0883809F4CC
:105AA000B8C0803909F45FC0803809F0C0C05BC05D
:105AB000803B09F486C038F4803A09F466C0883A1D
:105AC00009F47FC0B4C0803C09F4A7C0883C09F445
:105AD000A4C0883B09F48AC0AAC08091E80910C01C
